{
  "fileName": "DexKitSale.sol",
  "contractName": "DexKitSale",
  "source": "// contracts/DexKit.sol\r\n// SPDX-License-Identifier: MIT\r\npragma solidity ^0.6.0;\r\n\r\nimport \"@openzeppelin/contracts/token/ERC20/IERC20.sol\";\r\nimport \"@openzeppelin/contracts/token/ERC20/SafeERC20.sol\";\r\nimport \"@openzeppelin/contracts/utils/ReentrancyGuard.sol\";\r\nimport \"@openzeppelin/contracts/access/Ownable.sol\";\r\nimport \"@openzeppelin/contracts/math/SafeMath.sol\";\r\n\r\n/**\r\n*\r\n* DexKit Sale contract, used to distribute tokens by contract address.\r\n* This sale as 3 rounds\r\n* OTC Price 1 = 750 KIT per ETH --> capped to 400 ETH\r\n* OTC Price 2 = 600 KIT per ETH --> capped to 750 ETH\r\n* OTC Price 3 = 500 KIT per ETH --> capped to 1500 ETH\r\n* Max Cap is 2650 ETH\r\n* How it works? User send ETH to contract, min 1 ETH, max 25 ETH, the otc price is computed according to raised amount\r\n* User can only interact with smartcontract only one time, after that smartcontract not allow to send ETH again\r\n* \r\n* Sale opens at 14 of November UTC time 00:00:00\r\n*/\r\n\r\ncontract DexKitSale is  ReentrancyGuard, Ownable {\r\n\r\n    using SafeMath for uint256;\r\n    using SafeERC20 for IERC20;\r\n \r\n    uint256 private _startSaleTime;\r\n\r\n    uint256 private _endSaleTime;\r\n\r\n    uint256 private _raisedETH;\r\n\r\n    uint256 private _priceOTC1 = 750;\r\n    // Cap with price with OTC1\r\n    uint256 private _thresholdOTC1 = 400 ether;\r\n\r\n    uint256 private _priceOTC2 = 600;\r\n    // Threshold OTC 2 here is cappedOTC1 plus cappedOTC2\r\n    uint256 private _thresholdOTC2 = 1150 ether;\r\n\r\n    uint256 private _priceOTC3 = 500;\r\n\r\n    uint256 private _maxCap = 2650 ether;\r\n\r\n    bool private _isWithdrawAllowed = false;\r\n\r\n    IERC20 private _token;\r\n\r\n    mapping (address => uint256) private _withdrawBalances;\r\n    \r\n\r\n    address payable private _wallet;\r\n\r\n\r\n    constructor(uint256 startSaleTime, IERC20 token) public{\r\n        require(startSaleTime > block.timestamp, \"DexKitSale: Start sale time needs to be bigger than current time\");\r\n        _startSaleTime = startSaleTime;\r\n        _endSaleTime = startSaleTime + 7 days;\r\n        _wallet = msg.sender;\r\n        _token = token;\r\n    }\r\n\r\n\r\n    /**\r\n     * @dev Returns wallet which receives OTC funds\r\n     */\r\n    function wallet() public view returns (address) {\r\n        return _wallet;\r\n    }\r\n\r\n    /**\r\n     * @dev Returns token\r\n     */\r\n    function token() public view returns (address) {\r\n        return address(_token);\r\n    }\r\n\r\n    /**\r\n     * @dev Returns sale starting time\r\n     */\r\n    function startSaleTime() public view returns (uint256) {\r\n        return _startSaleTime;\r\n    }\r\n\r\n    /**\r\n     * @dev Returns end sale time\r\n     */\r\n    function endSaleTime() public view returns (uint256) {\r\n        return _endSaleTime;\r\n    }\r\n\r\n    /**\r\n     * @dev Returns max cap\r\n     */\r\n    function maxCap() public view returns (uint256) {\r\n        return _maxCap;\r\n    }\r\n\r\n    /**\r\n     * @dev Returns raised ETH\r\n     */\r\n    function raisedETH() public view returns (uint256) {\r\n        return _raisedETH;\r\n    }\r\n\r\n     /**\r\n     * @dev user withdraw balance\r\n     */\r\n    function userWithdrawBalance() public view returns (uint256) {\r\n        return _withdrawBalances[msg.sender];\r\n    }\r\n\r\n     /**\r\n     * @dev user withdraw balance\r\n     */\r\n    function userWithdrawBalanceOf(address user) public view returns (uint256) {\r\n        return _withdrawBalances[user];\r\n    }\r\n\r\n\r\n    /**\r\n     * @dev check if withdraw is allowed already\r\n     */\r\n    function withdrawAllowed() public view returns (bool) {\r\n        return _isWithdrawAllowed || block.timestamp > endSaleTime();\r\n    }\r\n\r\n\r\n    /**\r\n    *  @dev When receive ETH register tokens to be withdraw later after sale\r\n    *\r\n    *\r\n     */\r\n    receive() external payable {\r\n        require(block.timestamp > startSaleTime(), \"DexKitSale: Sale not started\");\r\n        require(block.timestamp < endSaleTime(), \"DexKitSale: Sale finished\");\r\n        require(msg.value >= 1 ether, \"DexKitSale: Minimum value is 1 ETH\");\r\n        require(msg.value <= 25 ether, \"DexKitSale: Maximum value is 25 ETH\");\r\n        require(_withdrawBalances[msg.sender] == 0, \"DexKitSale: already invested\");\r\n        require(!_isWithdrawAllowed, \"DexKitSale: Withdraw was enabled\");\r\n        uint256 amount = msg.value;\r\n        // Price it starts at OTC1 price\r\n        uint256 price = _priceOTC1;\r\n\r\n        _raisedETH = _raisedETH.add(amount);\r\n        require(_raisedETH <= _maxCap, \"DexKitSale: sale sold out\");\r\n        // If first cap is reached, OTC price is updated to round 2\r\n        if(_raisedETH > _thresholdOTC1){\r\n            price = _priceOTC2;\r\n        }\r\n        // If second cap is reached, OTC price is updated to round 3\r\n        if(_raisedETH > _thresholdOTC2){\r\n            price = _priceOTC3;\r\n        }\r\n       \r\n        _withdrawBalances[msg.sender] = _withdrawBalances[msg.sender].add(amount.mul(price));\r\n        emit Boughted(msg.sender, amount, price);\r\n    }\r\n    /**\r\n    * @dev call this if you want to allow withdraw before sale time, this could happen if sold out happen.\r\n    * It is recommended allow withdraw only after Uniswap pool is set\r\n    *   \r\n     */\r\n    function allowWithdraw() public onlyOwner{\r\n        _isWithdrawAllowed = true;\r\n    }\r\n\r\n      /**\r\n    *\r\n    * @dev User can withdraw after end of sale time or if withdraw is allowed\r\n     */\r\n    function withdrawTokens() external nonReentrant {\r\n      require(block.timestamp > endSaleTime()  || _isWithdrawAllowed, \"DexKitSale: Sale not finished\");\r\n      uint256 amount = _withdrawBalances[msg.sender];\r\n      require(amount > 0, \"DexKitSale: Amount needs to be bigger than zero\");\r\n       _withdrawBalances[msg.sender] = 0;\r\n      _token.safeTransfer(msg.sender, amount);\r\n      emit Withdrawed(msg.sender, amount);\r\n    }\r\n\r\n    /**\r\n     *\r\n     * @dev call this if user not know how to call withdraw tokens function, this withdraw tokens to user in their behalf\r\n     */\r\n    function withdrawByTokens(address user) external nonReentrant {\r\n      require(block.timestamp > endSaleTime() || _isWithdrawAllowed, \"DexKitSale: Sale not finished\");\r\n      uint256 amount = _withdrawBalances[user];\r\n      require(amount > 0, \"DexKitSale: Amount needs to be bigger than zero\");\r\n      _withdrawBalances[user] = 0;\r\n      _token.safeTransfer(user, amount);\r\n      emit Withdrawed(user, amount);\r\n    }\r\n\r\n    /**\r\n    *\r\n    * @dev Return ETH raised to project. Dev can withdraw at any time, part of OTC value is needed to setup Uniswap Liquidity, \r\n    * so it is needed to withdraw before users\r\n     */\r\n    function withdrawETH() public {\r\n      uint256 amount = address(this).balance;\r\n      require(amount > 0, \"No ETH to Withdraw\");\r\n      _wallet.transfer(amount);\r\n    }\r\n      /**\r\n     * @notice Transfers tokens held by sale smartcontract back to dev after 5 days of sale finished. Transfer tokens back to user \r\n     * before call this function\r\n     */\r\n    function release() public {\r\n        // solhint-disable-next-line not-rely-on-time\r\n        require(block.timestamp >= endSaleTime() + 5 days, \"DexKitSale: Not passed lock time\");\r\n\r\n        uint256 amount = _token.balanceOf(address(this));\r\n        require(amount > 0, \"DexKitSale: no tokens to release\");\r\n\r\n        _token.safeTransfer(_wallet, amount);\r\n    }\r\n\r\n    event Withdrawed(address indexed user, uint256 amount);\r\n    event Boughted(address indexed user, uint256 amount, uint256 price);\r\n}",
  "sourcePath": "contracts/DexKitSale.sol",
  "abi": [
    {
      "inputs": [
        {
          "internalType": "uint256",
          "name": "startSaleTime",
          "type": "uint256"
        },
        {
          "internalType": "contract IERC20",
          "name": "token",
          "type": "address"
        }
      ],
      "stateMutability": "nonpayable",
      "type": "constructor"
    },
    {
      "anonymous": false,
      "inputs": [
        {
          "indexed": true,
          "internalType": "address",
          "name": "user",
          "type": "address"
        },
        {
          "indexed": false,
          "internalType": "uint256",
          "name": "amount",
          "type": "uint256"
        },
        {
          "indexed": false,
          "internalType": "uint256",
          "name": "price",
          "type": "uint256"
        }
      ],
      "name": "Boughted",
      "type": "event"
    },
    {
      "anonymous": false,
      "inputs": [
        {
          "indexed": true,
          "internalType": "address",
          "name": "previousOwner",
          "type": "address"
        },
        {
          "indexed": true,
          "internalType": "address",
          "name": "newOwner",
          "type": "address"
        }
      ],
      "name": "OwnershipTransferred",
      "type": "event"
    },
    {
      "anonymous": false,
      "inputs": [
        {
          "indexed": true,
          "internalType": "address",
          "name": "user",
          "type": "address"
        },
        {
          "indexed": false,
          "internalType": "uint256",
          "name": "amount",
          "type": "uint256"
        }
      ],
      "name": "Withdrawed",
      "type": "event"
    },
    {
      "inputs": [],
      "name": "allowWithdraw",
      "outputs": [],
      "stateMutability": "nonpayable",
      "type": "function"
    },
    {
      "inputs": [],
      "name": "endSaleTime",
      "outputs": [
        {
          "internalType": "uint256",
          "name": "",
          "type": "uint256"
        }
      ],
      "stateMutability": "view",
      "type": "function"
    },
    {
      "inputs": [],
      "name": "maxCap",
      "outputs": [
        {
          "internalType": "uint256",
          "name": "",
          "type": "uint256"
        }
      ],
      "stateMutability": "view",
      "type": "function"
    },
    {
      "inputs": [],
      "name": "owner",
      "outputs": [
        {
          "internalType": "address",
          "name": "",
          "type": "address"
        }
      ],
      "stateMutability": "view",
      "type": "function"
    },
    {
      "inputs": [],
      "name": "raisedETH",
      "outputs": [
        {
          "internalType": "uint256",
          "name": "",
          "type": "uint256"
        }
      ],
      "stateMutability": "view",
      "type": "function"
    },
    {
      "inputs": [],
      "name": "release",
      "outputs": [],
      "stateMutability": "nonpayable",
      "type": "function"
    },
    {
      "inputs": [],
      "name": "renounceOwnership",
      "outputs": [],
      "stateMutability": "nonpayable",
      "type": "function"
    },
    {
      "inputs": [],
      "name": "startSaleTime",
      "outputs": [
        {
          "internalType": "uint256",
          "name": "",
          "type": "uint256"
        }
      ],
      "stateMutability": "view",
      "type": "function"
    },
    {
      "inputs": [],
      "name": "token",
      "outputs": [
        {
          "internalType": "address",
          "name": "",
          "type": "address"
        }
      ],
      "stateMutability": "view",
      "type": "function"
    },
    {
      "inputs": [
        {
          "internalType": "address",
          "name": "newOwner",
          "type": "address"
        }
      ],
      "name": "transferOwnership",
      "outputs": [],
      "stateMutability": "nonpayable",
      "type": "function"
    },
    {
      "inputs": [],
      "name": "userWithdrawBalance",
      "outputs": [
        {
          "internalType": "uint256",
          "name": "",
          "type": "uint256"
        }
      ],
      "stateMutability": "view",
      "type": "function"
    },
    {
      "inputs": [
        {
          "internalType": "address",
          "name": "user",
          "type": "address"
        }
      ],
      "name": "userWithdrawBalanceOf",
      "outputs": [
        {
          "internalType": "uint256",
          "name": "",
          "type": "uint256"
        }
      ],
      "stateMutability": "view",
      "type": "function"
    },
    {
      "inputs": [],
      "name": "wallet",
      "outputs": [
        {
          "internalType": "address",
          "name": "",
          "type": "address"
        }
      ],
      "stateMutability": "view",
      "type": "function"
    },
    {
      "inputs": [],
      "name": "withdrawAllowed",
      "outputs": [
        {
          "internalType": "bool",
          "name": "",
          "type": "bool"
        }
      ],
      "stateMutability": "view",
      "type": "function"
    },
    {
      "inputs": [
        {
          "internalType": "address",
          "name": "user",
          "type": "address"
        }
      ],
      "name": "withdrawByTokens",
      "outputs": [],
      "stateMutability": "nonpayable",
      "type": "function"
    },
    {
      "inputs": [],
      "name": "withdrawETH",
      "outputs": [],
      "stateMutability": "nonpayable",
      "type": "function"
    },
    {
      "inputs": [],
      "name": "withdrawTokens",
      "outputs": [],
      "stateMutability": "nonpayable",
      "type": "function"
    },
    {
      "stateMutability": "payable",
      "type": "receive"
    }
  ],
  "bytecode": "0x60806040526102ee6005556815af1d78b58c400000600655610258600755683e5774bb09f33800006008556101f4600955688fa8233fb2c1280000600a556000600b60006101000a81548160ff02191690831515021790555034801561006457600080fd5b5060405162002022380380620020228339818101604052604081101561008957600080fd5b810190808051906020019092919080519060200190929190505050600160008190555060006100bc61025060201b60201c565b905080600160006101000a81548173ffffffffffffffffffffffffffffffffffffffff021916908373ffffffffffffffffffffffffffffffffffffffff1602179055508073ffffffffffffffffffffffffffffffffffffffff16600073ffffffffffffffffffffffffffffffffffffffff167f8be0079c531659141344cd1fd0a4f28419497f9722a3daafe3b4186f6b6457e060405160405180910390a3504282116101b4576040517f08c379a000000000000000000000000000000000000000000000000000000000815260040180806020018281038252604081526020018062001fe26040913960400191505060405180910390fd5b8160028190555062093a80820160038190555033600d60006101000a81548173ffffffffffffffffffffffffffffffffffffffff021916908373ffffffffffffffffffffffffffffffffffffffff16021790555080600b60016101000a81548173ffffffffffffffffffffffffffffffffffffffff021916908373ffffffffffffffffffffffffffffffffffffffff1602179055505050610258565b600033905090565b611d7a80620002686000396000f3fe6080604052600436106101025760003560e01c80638d8f2adb11610095578063cc25eb9211610064578063cc25eb92146107e1578063e086e5ec14610846578063f1ead2521461085d578063f2fde38b14610874578063fc0c546a146108c5576105c0565b80638d8f2adb1461070d5780638da5cb5b14610724578063a961e9e814610765578063c816727c14610790576105c0565b806358371ccd116100d157806358371ccd14610689578063715018a6146106b45780637916ad46146106cb57806386d1a69f146106f6576105c0565b806323548b8b146105c55780632a486a28146105f0578063521eb2731461061b578063574eab011461065c576105c0565b366105c05761010f610906565b4211610183576040517f08c379a000000000000000000000000000000000000000000000000000000000815260040180806020018281038252601c8152602001807f4465784b697453616c653a2053616c65206e6f7420737461727465640000000081525060200191505060405180910390fd5b61018b610910565b42106101ff576040517f08c379a00000000000000000000000000000000000000000000000000000000081526004018080602001828103825260198152602001807f4465784b697453616c653a2053616c652066696e69736865640000000000000081525060200191505060405180910390fd5b670de0b6b3a7640000341015610260576040517f08c379a0000000000000000000000000000000000000000000000000000000008152600401808060200182810382526022815260200180611cb56022913960400191505060405180910390fd5b68015af1d78b58c400003411156102c2576040517f08c379a0000000000000000000000000000000000000000000000000000000008152600401808060200182810382526023815260200180611cf86023913960400191505060405180910390fd5b6000600c60003373ffffffffffffffffffffffffffffffffffffffff1673ffffffffffffffffffffffffffffffffffffffff1681526020019081526020016000205414610377576040517f08c379a000000000000000000000000000000000000000000000000000000000815260040180806020018281038252601c8152602001807f4465784b697453616c653a20616c726561647920696e7665737465640000000081525060200191505060405180910390fd5b600b60009054906101000a900460ff16156103fa576040517f08c379a00000000000000000000000000000000000000000000000000000000081526004018080602001828103825260208152602001807f4465784b697453616c653a2057697468647261772077617320656e61626c656481525060200191505060405180910390fd5b60003490506000600554905061041b8260045461091a90919063ffffffff16565b600481905550600a54600454111561049b576040517f08c379a00000000000000000000000000000000000000000000000000000000081526004018080602001828103825260198152602001807f4465784b697453616c653a2073616c6520736f6c64206f75740000000000000081525060200191505060405180910390fd5b60065460045411156104ad5760075490505b60085460045411156104bf5760095490505b6105236104d582846109a290919063ffffffff16565b600c60003373ffffffffffffffffffffffffffffffffffffffff1673ffffffffffffffffffffffffffffffffffffffff1681526020019081526020016000205461091a90919063ffffffff16565b600c60003373ffffffffffffffffffffffffffffffffffffffff1673ffffffffffffffffffffffffffffffffffffffff168152602001908152602001600020819055503373ffffffffffffffffffffffffffffffffffffffff167f4c5b70fd03dd54df42f0812a4db996de04319d9d3039bbac826b90d67707f6ab8383604051808381526020018281526020019250505060405180910390a25050005b600080fd5b3480156105d157600080fd5b506105da610a28565b6040518082815260200191505060405180910390f35b3480156105fc57600080fd5b50610605610a32565b6040518082815260200191505060405180910390f35b34801561062757600080fd5b50610630610a3c565b604051808273ffffffffffffffffffffffffffffffffffffffff16815260200191505060405180910390f35b34801561066857600080fd5b50610671610a66565b60405180821515815260200191505060405180910390f35b34801561069557600080fd5b5061069e610910565b6040518082815260200191505060405180910390f35b3480156106c057600080fd5b506106c9610a8e565b005b3480156106d757600080fd5b506106e0610c19565b6040518082815260200191505060405180910390f35b34801561070257600080fd5b5061070b610c60565b005b34801561071957600080fd5b50610722610e92565b005b34801561073057600080fd5b5061073961112e565b604051808273ffffffffffffffffffffffffffffffffffffffff16815260200191505060405180910390f35b34801561077157600080fd5b5061077a610906565b6040518082815260200191505060405180910390f35b34801561079c57600080fd5b506107df600480360360208110156107b357600080fd5b81019080803573ffffffffffffffffffffffffffffffffffffffff169060200190929190505050611158565b005b3480156107ed57600080fd5b506108306004803603602081101561080457600080fd5b81019080803573ffffffffffffffffffffffffffffffffffffffff1690602001909291905050506113f5565b6040518082815260200191505060405180910390f35b34801561085257600080fd5b5061085b61143e565b005b34801561086957600080fd5b5061087261153c565b005b34801561088057600080fd5b506108c36004803603602081101561089757600080fd5b81019080803573ffffffffffffffffffffffffffffffffffffffff169060200190929190505050611623565b005b3480156108d157600080fd5b506108da611833565b604051808273ffffffffffffffffffffffffffffffffffffffff16815260200191505060405180910390f35b6000600254905090565b6000600354905090565b600080828401905083811015610998576040517f08c379a000000000000000000000000000000000000000000000000000000000815260040180806020018281038252601b8152602001807f536166654d6174683a206164646974696f6e206f766572666c6f77000000000081525060200191505060405180910390fd5b8091505092915050565b6000808314156109b55760009050610a22565b60008284029050828482816109c657fe5b0414610a1d576040517f08c379a0000000000000000000000000000000000000000000000000000000008152600401808060200182810382526021815260200180611cd76021913960400191505060405180910390fd5b809150505b92915050565b6000600a54905090565b6000600454905090565b6000600d60009054906101000a900473ffffffffffffffffffffffffffffffffffffffff16905090565b6000600b60009054906101000a900460ff1680610a895750610a86610910565b42115b905090565b610a9661185d565b73ffffffffffffffffffffffffffffffffffffffff16600160009054906101000a900473ffffffffffffffffffffffffffffffffffffffff1673ffffffffffffffffffffffffffffffffffffffff1614610b58576040517f08c379a00000000000000000000000000000000000000000000000000000000081526004018080602001828103825260208152602001807f4f776e61626c653a2063616c6c6572206973206e6f7420746865206f776e657281525060200191505060405180910390fd5b600073ffffffffffffffffffffffffffffffffffffffff16600160009054906101000a900473ffffffffffffffffffffffffffffffffffffffff1673ffffffffffffffffffffffffffffffffffffffff167f8be0079c531659141344cd1fd0a4f28419497f9722a3daafe3b4186f6b6457e060405160405180910390a36000600160006101000a81548173ffffffffffffffffffffffffffffffffffffffff021916908373ffffffffffffffffffffffffffffffffffffffff160217905550565b6000600c60003373ffffffffffffffffffffffffffffffffffffffff1673ffffffffffffffffffffffffffffffffffffffff16815260200190815260200160002054905090565b62069780610c6c610910565b01421015610ce2576040517f08c379a00000000000000000000000000000000000000000000000000000000081526004018080602001828103825260208152602001807f4465784b697453616c653a204e6f7420706173736564206c6f636b2074696d6581525060200191505060405180910390fd5b6000600b60019054906101000a900473ffffffffffffffffffffffffffffffffffffffff1673ffffffffffffffffffffffffffffffffffffffff166370a08231306040518263ffffffff1660e01b8152600401808273ffffffffffffffffffffffffffffffffffffffff16815260200191505060206040518083038186803b158015610d6d57600080fd5b505afa158015610d81573d6000803e3d6000fd5b505050506040513d6020811015610d9757600080fd5b8101908080519060200190929190505050905060008111610e20576040517f08c379a00000000000000000000000000000000000000000000000000000000081526004018080602001828103825260208152602001807f4465784b697453616c653a206e6f20746f6b656e7320746f2072656c6561736581525060200191505060405180910390fd5b610e8f600d60009054906101000a900473ffffffffffffffffffffffffffffffffffffffff1682600b60019054906101000a900473ffffffffffffffffffffffffffffffffffffffff1673ffffffffffffffffffffffffffffffffffffffff166118659092919063ffffffff16565b50565b60026000541415610f0b576040517f08c379a000000000000000000000000000000000000000000000000000000000815260040180806020018281038252601f8152602001807f5265656e7472616e637947756172643a207265656e7472616e742063616c6c0081525060200191505060405180910390fd5b6002600081905550610f1b610910565b421180610f345750600b60009054906101000a900460ff165b610fa6576040517f08c379a000000000000000000000000000000000000000000000000000000000815260040180806020018281038252601d8152602001807f4465784b697453616c653a2053616c65206e6f742066696e697368656400000081525060200191505060405180910390fd5b6000600c60003373ffffffffffffffffffffffffffffffffffffffff1673ffffffffffffffffffffffffffffffffffffffff16815260200190815260200160002054905060008111611043576040517f08c379a000000000000000000000000000000000000000000000000000000000815260040180806020018281038252602f815260200180611c60602f913960400191505060405180910390fd5b6000600c60003373ffffffffffffffffffffffffffffffffffffffff1673ffffffffffffffffffffffffffffffffffffffff168152602001908152602001600020819055506110d53382600b60019054906101000a900473ffffffffffffffffffffffffffffffffffffffff1673ffffffffffffffffffffffffffffffffffffffff166118659092919063ffffffff16565b3373ffffffffffffffffffffffffffffffffffffffff167f6cca423c6ffc06e62a0acc433965e074b11c28479b0449250ce3ff65ac9e39fe826040518082815260200191505060405180910390a2506001600081905550565b6000600160009054906101000a900473ffffffffffffffffffffffffffffffffffffffff16905090565b600260005414156111d1576040517f08c379a000000000000000000000000000000000000000000000000000000000815260040180806020018281038252601f8152602001807f5265656e7472616e637947756172643a207265656e7472616e742063616c6c0081525060200191505060405180910390fd5b60026000819055506111e1610910565b4211806111fa5750600b60009054906101000a900460ff165b61126c576040517f08c379a000000000000000000000000000000000000000000000000000000000815260040180806020018281038252601d8152602001807f4465784b697453616c653a2053616c65206e6f742066696e697368656400000081525060200191505060405180910390fd5b6000600c60008373ffffffffffffffffffffffffffffffffffffffff1673ffffffffffffffffffffffffffffffffffffffff16815260200190815260200160002054905060008111611309576040517f08c379a000000000000000000000000000000000000000000000000000000000815260040180806020018281038252602f815260200180611c60602f913960400191505060405180910390fd5b6000600c60008473ffffffffffffffffffffffffffffffffffffffff1673ffffffffffffffffffffffffffffffffffffffff1681526020019081526020016000208190555061139b8282600b60019054906101000a900473ffffffffffffffffffffffffffffffffffffffff1673ffffffffffffffffffffffffffffffffffffffff166118659092919063ffffffff16565b8173ffffffffffffffffffffffffffffffffffffffff167f6cca423c6ffc06e62a0acc433965e074b11c28479b0449250ce3ff65ac9e39fe826040518082815260200191505060405180910390a250600160008190555050565b6000600c60008373ffffffffffffffffffffffffffffffffffffffff1673ffffffffffffffffffffffffffffffffffffffff168152602001908152602001600020549050919050565b60003073ffffffffffffffffffffffffffffffffffffffff16319050600081116114d0576040517f08c379a00000000000000000000000000000000000000000000000000000000081526004018080602001828103825260128152602001807f4e6f2045544820746f205769746864726177000000000000000000000000000081525060200191505060405180910390fd5b600d60009054906101000a900473ffffffffffffffffffffffffffffffffffffffff1673ffffffffffffffffffffffffffffffffffffffff166108fc829081150290604051600060405180830381858888f19350505050158015611538573d6000803e3d6000fd5b5050565b61154461185d565b73ffffffffffffffffffffffffffffffffffffffff16600160009054906101000a900473ffffffffffffffffffffffffffffffffffffffff1673ffffffffffffffffffffffffffffffffffffffff1614611606576040517f08c379a00000000000000000000000000000000000000000000000000000000081526004018080602001828103825260208152602001807f4f776e61626c653a2063616c6c6572206973206e6f7420746865206f776e657281525060200191505060405180910390fd5b6001600b60006101000a81548160ff021916908315150217905550565b61162b61185d565b73ffffffffffffffffffffffffffffffffffffffff16600160009054906101000a900473ffffffffffffffffffffffffffffffffffffffff1673ffffffffffffffffffffffffffffffffffffffff16146116ed576040517f08c379a00000000000000000000000000000000000000000000000000000000081526004018080602001828103825260208152602001807f4f776e61626c653a2063616c6c6572206973206e6f7420746865206f776e657281525060200191505060405180910390fd5b600073ffffffffffffffffffffffffffffffffffffffff168173ffffffffffffffffffffffffffffffffffffffff161415611773576040517f08c379a0000000000000000000000000000000000000000000000000000000008152600401808060200182810382526026815260200180611c8f6026913960400191505060405180910390fd5b8073ffffffffffffffffffffffffffffffffffffffff16600160009054906101000a900473ffffffffffffffffffffffffffffffffffffffff1673ffffffffffffffffffffffffffffffffffffffff167f8be0079c531659141344cd1fd0a4f28419497f9722a3daafe3b4186f6b6457e060405160405180910390a380600160006101000a81548173ffffffffffffffffffffffffffffffffffffffff021916908373ffffffffffffffffffffffffffffffffffffffff16021790555050565b6000600b60019054906101000a900473ffffffffffffffffffffffffffffffffffffffff16905090565b600033905090565b6119028363a9059cbb60e01b8484604051602401808373ffffffffffffffffffffffffffffffffffffffff16815260200182815260200192505050604051602081830303815290604052907bffffffffffffffffffffffffffffffffffffffffffffffffffffffff19166020820180517bffffffffffffffffffffffffffffffffffffffffffffffffffffffff8381831617835250505050611907565b505050565b6060611969826040518060400160405280602081526020017f5361666545524332303a206c6f772d6c6576656c2063616c6c206661696c65648152508573ffffffffffffffffffffffffffffffffffffffff166119f69092919063ffffffff16565b90506000815111156119f15780806020019051602081101561198a57600080fd5b81019080805190602001909291905050506119f0576040517f08c379a000000000000000000000000000000000000000000000000000000000815260040180806020018281038252602a815260200180611d1b602a913960400191505060405180910390fd5b5b505050565b6060611a058484600085611a0e565b90509392505050565b6060611a1985611c14565b611a8b576040517f08c379a000000000000000000000000000000000000000000000000000000000815260040180806020018281038252601d8152602001807f416464726573733a2063616c6c20746f206e6f6e2d636f6e747261637400000081525060200191505060405180910390fd5b600060608673ffffffffffffffffffffffffffffffffffffffff1685876040518082805190602001908083835b60208310611adb5780518252602082019150602081019050602083039250611ab8565b6001836020036101000a03801982511681845116808217855250505050505090500191505060006040518083038185875af1925050503d8060008114611b3d576040519150601f19603f3d011682016040523d82523d6000602084013e611b42565b606091505b50915091508115611b57578092505050611c0c565b600081511115611b6a5780518082602001fd5b836040517f08c379a00000000000000000000000000000000000000000000000000000000081526004018080602001828103825283818151815260200191508051906020019080838360005b83811015611bd1578082015181840152602081019050611bb6565b50505050905090810190601f168015611bfe5780820380516001836020036101000a031916815260200191505b509250505060405180910390fd5b949350505050565b60008060007fc5d2460186f7233c927e7db2dcc703c0e500b653ca82273b7bfad8045d85a47060001b9050833f9150808214158015611c5657506000801b8214155b9250505091905056fe4465784b697453616c653a20416d6f756e74206e6565647320746f20626520626967676572207468616e207a65726f4f776e61626c653a206e6577206f776e657220697320746865207a65726f20616464726573734465784b697453616c653a204d696e696d756d2076616c7565206973203120455448536166654d6174683a206d756c7469706c69636174696f6e206f766572666c6f774465784b697453616c653a204d6178696d756d2076616c7565206973203235204554485361666545524332303a204552433230206f7065726174696f6e20646964206e6f742073756363656564a26469706673582212202cfc494109777358546ca794ce707bdce150f45e1db52d51c759e0deeb990d6464736f6c634300060c00334465784b697453616c653a2053746172742073616c652074696d65206e6565647320746f20626520626967676572207468616e2063757272656e742074696d65",
  "compiler": {
    "name": "solc",
    "version": "0.6.12+commit.27d51765.Emscripten.clang",
    "optimizer": {
      "enabled": false,
      "runs": 200
    },
    "evmVersion": "petersburg"
  }
}