{
  "fileName": "FeeDistributor.sol",
  "contractName": "FeeDistributor",
  "source": "// SPDX-License-Identifier: MIT\r\n\r\npragma solidity ^0.6.0;\r\n\r\nimport \"@openzeppelin/contracts/GSN/Context.sol\";\r\nimport \"@openzeppelin/contracts/math/SafeMath.sol\";\r\nimport \"@openzeppelin/contracts/access/Ownable.sol\";\r\nimport \"@openzeppelin/contracts/token/ERC20/SafeERC20.sol\";\r\n/**\r\n * @title FeeDistributor\r\n * @dev \r\n */\r\ncontract FeeDistributor is Ownable {\r\n    using SafeMath for uint256;\r\n    using SafeERC20 for IERC20;\r\n\r\n    uint256 private _kitShares = 2500;\r\n    uint256 private _projectShares = 7500;\r\n    uint256 private _totalShares = 10000;\r\n\r\n\r\n\r\n    address payable _feeProjectAddress;\r\n    address payable _feeKitAddress;\r\n\r\n    /**\r\n     * @dev \r\n     */\r\n    constructor () public payable {\r\n      \r\n    }\r\n\r\n    function setFeeProjectAddress(address payable feeProjectAddress) public onlyOwner{\r\n        _feeProjectAddress = feeProjectAddress;\r\n    }\r\n\r\n    function setFeeKitAddress(address payable feeKitAddress) public onlyOwner{\r\n        _feeKitAddress = feeKitAddress;\r\n    }\r\n\r\n    /**\r\n     * @dev \r\n     */\r\n    function releaseETH() public {\r\n        uint256 balance = address(this).balance;\r\n        require(balance > 0, \"FeeDistributor: no balance to distribute\");\r\n\r\n        uint256 kitBalance = balance.mul(_kitShares).div(_totalShares);\r\n        uint256 projectBalance = balance.mul(_projectShares).div(_totalShares);\r\n\r\n        _feeProjectAddress.transfer(projectBalance);\r\n        _feeKitAddress.transfer(kitBalance);\r\n    }\r\n\r\n    \r\n    /**\r\n     * @dev \r\n     */\r\n    function releaseToken(IERC20 token) public {\r\n        uint256 balance = token.balanceOf(address(this));\r\n        require(balance > 0, \"FeeDistributor: no balance to distribute\");\r\n\r\n        uint256 kitBalance = balance.mul(_kitShares).div(_totalShares);\r\n        uint256 projectBalance = balance.mul(_projectShares).div(_totalShares);\r\n\r\n        token.safeTransfer(_feeProjectAddress, projectBalance);\r\n        token.safeTransfer(_feeKitAddress, kitBalance);\r\n    }\r\n\r\n     /**\r\n     * @dev \r\n     */\r\n    function releaseMultipleTokens(IERC20[] memory tokens) public {\r\n\r\n        for (uint i=0; i< tokens.length; i++) {\r\n           uint256 balance = tokens[i].balanceOf(address(this));\r\n           if(balance > 0){\r\n              require(balance > 0, \"FeeDistributor: no balance to distribute\");\r\n              uint256 kitBalance = balance.mul(_kitShares).div(_totalShares);\r\n              uint256 projectBalance = balance.mul(_projectShares).div(_totalShares);\r\n              tokens[i].safeTransfer(_feeProjectAddress, projectBalance);\r\n              tokens[i].safeTransfer(_feeKitAddress, kitBalance);\r\n           }\r\n        }\r\n    }\r\n\r\n}\r\n",
  "sourcePath": "contracts/FeeDistributor.sol",
  "abi": [
    {
      "inputs": [],
      "stateMutability": "payable",
      "type": "constructor"
    },
    {
      "anonymous": false,
      "inputs": [
        {
          "indexed": true,
          "internalType": "address",
          "name": "previousOwner",
          "type": "address"
        },
        {
          "indexed": true,
          "internalType": "address",
          "name": "newOwner",
          "type": "address"
        }
      ],
      "name": "OwnershipTransferred",
      "type": "event"
    },
    {
      "inputs": [],
      "name": "owner",
      "outputs": [
        {
          "internalType": "address",
          "name": "",
          "type": "address"
        }
      ],
      "stateMutability": "view",
      "type": "function"
    },
    {
      "inputs": [],
      "name": "releaseETH",
      "outputs": [],
      "stateMutability": "nonpayable",
      "type": "function"
    },
    {
      "inputs": [
        {
          "internalType": "contract IERC20[]",
          "name": "tokens",
          "type": "address[]"
        }
      ],
      "name": "releaseMultipleTokens",
      "outputs": [],
      "stateMutability": "nonpayable",
      "type": "function"
    },
    {
      "inputs": [
        {
          "internalType": "contract IERC20",
          "name": "token",
          "type": "address"
        }
      ],
      "name": "releaseToken",
      "outputs": [],
      "stateMutability": "nonpayable",
      "type": "function"
    },
    {
      "inputs": [],
      "name": "renounceOwnership",
      "outputs": [],
      "stateMutability": "nonpayable",
      "type": "function"
    },
    {
      "inputs": [
        {
          "internalType": "address payable",
          "name": "feeKitAddress",
          "type": "address"
        }
      ],
      "name": "setFeeKitAddress",
      "outputs": [],
      "stateMutability": "nonpayable",
      "type": "function"
    },
    {
      "inputs": [
        {
          "internalType": "address payable",
          "name": "feeProjectAddress",
          "type": "address"
        }
      ],
      "name": "setFeeProjectAddress",
      "outputs": [],
      "stateMutability": "nonpayable",
      "type": "function"
    },
    {
      "inputs": [
        {
          "internalType": "address",
          "name": "newOwner",
          "type": "address"
        }
      ],
      "name": "transferOwnership",
      "outputs": [],
      "stateMutability": "nonpayable",
      "type": "function"
    }
  ],
  "bytecode": "0x60806040526109c4600155611d4c60025561271060035560006100266100c960201b60201c565b9050806000806101000a81548173ffffffffffffffffffffffffffffffffffffffff021916908373ffffffffffffffffffffffffffffffffffffffff1602179055508073ffffffffffffffffffffffffffffffffffffffff16600073ffffffffffffffffffffffffffffffffffffffff167f8be0079c531659141344cd1fd0a4f28419497f9722a3daafe3b4186f6b6457e060405160405180910390a3506100d1565b600033905090565b6114cb806100e06000396000f3fe608060405234801561001057600080fd5b50600436106100885760003560e01c80638da5cb5b1161005b5780638da5cb5b1461019d5780638ffe0c0f146101d1578063e545f94114610215578063f2fde38b1461025957610088565b806324f3ccb11461008d5780633da83271146101455780636639016b14610189578063715018a614610193575b600080fd5b610143600480360360208110156100a357600080fd5b81019080803590602001906401000000008111156100c057600080fd5b8201836020820111156100d257600080fd5b803590602001918460208302840111640100000000831117156100f457600080fd5b919080806020026020016040519081016040528093929190818152602001838360200280828437600081840152601f19601f82011690508083019250505050505050919291929050505061029d565b005b6101876004803603602081101561015b57600080fd5b81019080803573ffffffffffffffffffffffffffffffffffffffff1690602001909291905050506104f3565b005b6101916105ff565b005b61019b6107a5565b005b6101a561092b565b604051808273ffffffffffffffffffffffffffffffffffffffff16815260200191505060405180910390f35b610213600480360360208110156101e757600080fd5b81019080803573ffffffffffffffffffffffffffffffffffffffff169060200190929190505050610954565b005b6102576004803603602081101561022b57600080fd5b81019080803573ffffffffffffffffffffffffffffffffffffffff169060200190929190505050610a60565b005b61029b6004803603602081101561026f57600080fd5b81019080803573ffffffffffffffffffffffffffffffffffffffff169060200190929190505050610c59565b005b60005b81518110156104ef5760008282815181106102b757fe5b602002602001015173ffffffffffffffffffffffffffffffffffffffff166370a08231306040518263ffffffff1660e01b8152600401808273ffffffffffffffffffffffffffffffffffffffff16815260200191505060206040518083038186803b15801561032557600080fd5b505afa158015610339573d6000803e3d6000fd5b505050506040513d602081101561034f57600080fd5b8101908080519060200190929190505050905060008111156104e157600081116103c4576040517f08c379a00000000000000000000000000000000000000000000000000000000081526004018080602001828103825260288152602001806114236028913960400191505060405180910390fd5b60006103ef6003546103e160015485610e6490919063ffffffff16565b610eea90919063ffffffff16565b9050600061041c60035461040e60025486610e6490919063ffffffff16565b610eea90919063ffffffff16565b905061047e600460009054906101000a900473ffffffffffffffffffffffffffffffffffffffff168287878151811061045157fe5b602002602001015173ffffffffffffffffffffffffffffffffffffffff16610f349092919063ffffffff16565b6104de600560009054906101000a900473ffffffffffffffffffffffffffffffffffffffff16838787815181106104b157fe5b602002602001015173ffffffffffffffffffffffffffffffffffffffff16610f349092919063ffffffff16565b50505b5080806001019150506102a0565b5050565b6104fb610fd6565b73ffffffffffffffffffffffffffffffffffffffff1660008054906101000a900473ffffffffffffffffffffffffffffffffffffffff1673ffffffffffffffffffffffffffffffffffffffff16146105bb576040517f08c379a00000000000000000000000000000000000000000000000000000000081526004018080602001828103825260208152602001807f4f776e61626c653a2063616c6c6572206973206e6f7420746865206f776e657281525060200191505060405180910390fd5b80600560006101000a81548173ffffffffffffffffffffffffffffffffffffffff021916908373ffffffffffffffffffffffffffffffffffffffff16021790555050565b60003073ffffffffffffffffffffffffffffffffffffffff1631905060008111610674576040517f08c379a00000000000000000000000000000000000000000000000000000000081526004018080602001828103825260288152602001806114236028913960400191505060405180910390fd5b600061069f60035461069160015485610e6490919063ffffffff16565b610eea90919063ffffffff16565b905060006106cc6003546106be60025486610e6490919063ffffffff16565b610eea90919063ffffffff16565b9050600460009054906101000a900473ffffffffffffffffffffffffffffffffffffffff1673ffffffffffffffffffffffffffffffffffffffff166108fc829081150290604051600060405180830381858888f19350505050158015610736573d6000803e3d6000fd5b50600560009054906101000a900473ffffffffffffffffffffffffffffffffffffffff1673ffffffffffffffffffffffffffffffffffffffff166108fc839081150290604051600060405180830381858888f1935050505015801561079f573d6000803e3d6000fd5b50505050565b6107ad610fd6565b73ffffffffffffffffffffffffffffffffffffffff1660008054906101000a900473ffffffffffffffffffffffffffffffffffffffff1673ffffffffffffffffffffffffffffffffffffffff161461086d576040517f08c379a00000000000000000000000000000000000000000000000000000000081526004018080602001828103825260208152602001807f4f776e61626c653a2063616c6c6572206973206e6f7420746865206f776e657281525060200191505060405180910390fd5b600073ffffffffffffffffffffffffffffffffffffffff1660008054906101000a900473ffffffffffffffffffffffffffffffffffffffff1673ffffffffffffffffffffffffffffffffffffffff167f8be0079c531659141344cd1fd0a4f28419497f9722a3daafe3b4186f6b6457e060405160405180910390a360008060006101000a81548173ffffffffffffffffffffffffffffffffffffffff021916908373ffffffffffffffffffffffffffffffffffffffff160217905550565b60008060009054906101000a900473ffffffffffffffffffffffffffffffffffffffff16905090565b61095c610fd6565b73ffffffffffffffffffffffffffffffffffffffff1660008054906101000a900473ffffffffffffffffffffffffffffffffffffffff1673ffffffffffffffffffffffffffffffffffffffff1614610a1c576040517f08c379a00000000000000000000000000000000000000000000000000000000081526004018080602001828103825260208152602001807f4f776e61626c653a2063616c6c6572206973206e6f7420746865206f776e657281525060200191505060405180910390fd5b80600460006101000a81548173ffffffffffffffffffffffffffffffffffffffff021916908373ffffffffffffffffffffffffffffffffffffffff16021790555050565b60008173ffffffffffffffffffffffffffffffffffffffff166370a08231306040518263ffffffff1660e01b8152600401808273ffffffffffffffffffffffffffffffffffffffff16815260200191505060206040518083038186803b158015610ac957600080fd5b505afa158015610add573d6000803e3d6000fd5b505050506040513d6020811015610af357600080fd5b8101908080519060200190929190505050905060008111610b5f576040517f08c379a00000000000000000000000000000000000000000000000000000000081526004018080602001828103825260288152602001806114236028913960400191505060405180910390fd5b6000610b8a600354610b7c60015485610e6490919063ffffffff16565b610eea90919063ffffffff16565b90506000610bb7600354610ba960025486610e6490919063ffffffff16565b610eea90919063ffffffff16565b9050610c06600460009054906101000a900473ffffffffffffffffffffffffffffffffffffffff16828673ffffffffffffffffffffffffffffffffffffffff16610f349092919063ffffffff16565b610c53600560009054906101000a900473ffffffffffffffffffffffffffffffffffffffff16838673ffffffffffffffffffffffffffffffffffffffff16610f349092919063ffffffff16565b50505050565b610c61610fd6565b73ffffffffffffffffffffffffffffffffffffffff1660008054906101000a900473ffffffffffffffffffffffffffffffffffffffff1673ffffffffffffffffffffffffffffffffffffffff1614610d21576040517f08c379a00000000000000000000000000000000000000000000000000000000081526004018080602001828103825260208152602001807f4f776e61626c653a2063616c6c6572206973206e6f7420746865206f776e657281525060200191505060405180910390fd5b600073ffffffffffffffffffffffffffffffffffffffff168173ffffffffffffffffffffffffffffffffffffffff161415610da7576040517f08c379a00000000000000000000000000000000000000000000000000000000081526004018080602001828103825260268152602001806113fd6026913960400191505060405180910390fd5b8073ffffffffffffffffffffffffffffffffffffffff1660008054906101000a900473ffffffffffffffffffffffffffffffffffffffff1673ffffffffffffffffffffffffffffffffffffffff167f8be0079c531659141344cd1fd0a4f28419497f9722a3daafe3b4186f6b6457e060405160405180910390a3806000806101000a81548173ffffffffffffffffffffffffffffffffffffffff021916908373ffffffffffffffffffffffffffffffffffffffff16021790555050565b600080831415610e775760009050610ee4565b6000828402905082848281610e8857fe5b0414610edf576040517f08c379a000000000000000000000000000000000000000000000000000000000815260040180806020018281038252602181526020018061144b6021913960400191505060405180910390fd5b809150505b92915050565b6000610f2c83836040518060400160405280601a81526020017f536166654d6174683a206469766973696f6e206279207a65726f000000000000815250610fde565b905092915050565b610fd18363a9059cbb60e01b8484604051602401808373ffffffffffffffffffffffffffffffffffffffff16815260200182815260200192505050604051602081830303815290604052907bffffffffffffffffffffffffffffffffffffffffffffffffffffffff19166020820180517bffffffffffffffffffffffffffffffffffffffffffffffffffffffff83818316178352505050506110a4565b505050565b600033905090565b6000808311829061108a576040517f08c379a00000000000000000000000000000000000000000000000000000000081526004018080602001828103825283818151815260200191508051906020019080838360005b8381101561104f578082015181840152602081019050611034565b50505050905090810190601f16801561107c5780820380516001836020036101000a031916815260200191505b509250505060405180910390fd5b50600083858161109657fe5b049050809150509392505050565b6060611106826040518060400160405280602081526020017f5361666545524332303a206c6f772d6c6576656c2063616c6c206661696c65648152508573ffffffffffffffffffffffffffffffffffffffff166111939092919063ffffffff16565b905060008151111561118e5780806020019051602081101561112757600080fd5b810190808051906020019092919050505061118d576040517f08c379a000000000000000000000000000000000000000000000000000000000815260040180806020018281038252602a81526020018061146c602a913960400191505060405180910390fd5b5b505050565b60606111a284846000856111ab565b90509392505050565b60606111b6856113b1565b611228576040517f08c379a000000000000000000000000000000000000000000000000000000000815260040180806020018281038252601d8152602001807f416464726573733a2063616c6c20746f206e6f6e2d636f6e747261637400000081525060200191505060405180910390fd5b600060608673ffffffffffffffffffffffffffffffffffffffff1685876040518082805190602001908083835b602083106112785780518252602082019150602081019050602083039250611255565b6001836020036101000a03801982511681845116808217855250505050505090500191505060006040518083038185875af1925050503d80600081146112da576040519150601f19603f3d011682016040523d82523d6000602084013e6112df565b606091505b509150915081156112f45780925050506113a9565b6000815111156113075780518082602001fd5b836040517f08c379a00000000000000000000000000000000000000000000000000000000081526004018080602001828103825283818151815260200191508051906020019080838360005b8381101561136e578082015181840152602081019050611353565b50505050905090810190601f16801561139b5780820380516001836020036101000a031916815260200191505b509250505060405180910390fd5b949350505050565b60008060007fc5d2460186f7233c927e7db2dcc703c0e500b653ca82273b7bfad8045d85a47060001b9050833f91508082141580156113f357506000801b8214155b9250505091905056fe4f776e61626c653a206e6577206f776e657220697320746865207a65726f20616464726573734665654469737472696275746f723a206e6f2062616c616e636520746f2064697374726962757465536166654d6174683a206d756c7469706c69636174696f6e206f766572666c6f775361666545524332303a204552433230206f7065726174696f6e20646964206e6f742073756363656564a2646970667358221220ac44582ac0bc874dd5b6251675786d9254a38f3e5e75f392144f69bf277000ab64736f6c634300060c0033",
  "compiler": {
    "name": "solc",
    "version": "0.6.12+commit.27d51765.Emscripten.clang",
    "optimizer": {
      "enabled": false,
      "runs": 200
    },
    "evmVersion": "petersburg"
  }
}