{
  "fileName": "StakingRewards.sol",
  "contractName": "StakingRewards",
  "source": "// contracts/DexKit.sol\r\n// SPDX-License-Identifier: MIT\r\npragma solidity ^0.6.0;\r\n\r\npragma experimental ABIEncoderV2;\r\n\r\nimport \"./DexKit.sol\";\r\nimport \"@openzeppelin/contracts/access/Ownable.sol\";\r\n\r\n\r\n\r\ncontract StakingRewards is Ownable {\r\n\r\n    using SafeMath for uint256;\r\n\r\n    DexKit _token;\r\n\r\n    struct StakingData{\r\n        uint256 snapshot;\r\n        uint256 totalEthToClaim;\r\n        uint256 myClaim;\r\n        uint256 totalClaimed;\r\n         \r\n    }\r\n\r\n    mapping (uint256 => mapping (address => uint256)) private _claims;\r\n\r\n    mapping (uint256 => uint256) private _totalSupplyClaimed;\r\n\r\n    mapping (uint256 => uint256) private _totalEthToClaim;\r\n\r\n    event Claimed(address indexed from, uint256 snapshotId, uint256 value);\r\n\r\n    event Withdrawed(address indexed from, uint256 snapshotId, uint256 value);\r\n\r\n    constructor(DexKit token ) public {\r\n        _token = token;\r\n    }\r\n    /**\r\n     * @dev When receive ETH it will add to current snapshot ID fund\r\n     */\r\n    receive() external payable {\r\n        uint256 currentSnapshotId = _token.currentSnapshotId();\r\n        _totalEthToClaim[currentSnapshotId] = _totalEthToClaim[currentSnapshotId].add(msg.value);\r\n    }\r\n    /**\r\n     *\r\n     * @dev user to claim needs to have a positive net balance between two consecutive snaphots\r\n     */\r\n    function claimRewards() public {\r\n        uint256 currentSnapshotId = _token.currentSnapshotId();\r\n        require(currentSnapshotId > 2, \"Snapshot must be higher than 2\");\r\n        uint256 previousSnapshot = currentSnapshotId.sub(1);\r\n        uint256 atualBalance = _token.balanceOfAt(msg.sender, currentSnapshotId); \r\n        require(atualBalance.sub(_token.balanceOfAt(msg.sender, previousSnapshot)) > 0, \"your net balance needs to be positive between snapshots\");\r\n        require(_claims[currentSnapshotId][msg.sender] == 0, \"already claimed\");\r\n        _claims[currentSnapshotId][msg.sender] = atualBalance;\r\n        _totalSupplyClaimed[currentSnapshotId] = _totalSupplyClaimed[currentSnapshotId].add(atualBalance);\r\n        emit Claimed(msg.sender, currentSnapshotId, atualBalance);\r\n    }\r\n\r\n    function withdrawRewards(uint256 snapshotId) public {\r\n        uint256 currentSnapshotId = _token.currentSnapshotId();\r\n        require(snapshotId > 1, \"Snapshot must be higher than 1\");\r\n        require(snapshotId < currentSnapshotId, \"can not withdraw at current snaphost\");\r\n        // We can safely assume if user has zero balance has already withdraw for this snapshotID\r\n        require(_claims[snapshotId][msg.sender] != 0, \"already withdrawed\");\r\n        uint256 shareToClaim = _claims[snapshotId][msg.sender];\r\n        uint256 totalShares = _totalSupplyClaimed[snapshotId];\r\n        _claims[snapshotId][msg.sender] = 0;\r\n        uint256 totalETHAmount = _totalEthToClaim[snapshotId];\r\n        uint256 rewardToClaim = totalETHAmount.mul(shareToClaim).div(totalShares);\r\n        payable(msg.sender).transfer(rewardToClaim);\r\n        emit Withdrawed(msg.sender, snapshotId, rewardToClaim);\r\n    }\r\n    /**\r\n    * Withdraw multiple rewards at once\r\n    *\r\n     */\r\n    function withdrawRewardsBulk(uint256 startSnapshotId, uint256 endSnapshotId) public {\r\n        uint256 currentSnapshotId = _token.currentSnapshotId();\r\n        require(startSnapshotId > 1, \"Snapshot must be higher than 1\");\r\n        require(endSnapshotId > startSnapshotId, \"end snapshot id must be higher than endSnaphotID\");\r\n        require(endSnapshotId < currentSnapshotId, \"can not withdraw at current snaphost\");\r\n       \r\n        for(uint index = startSnapshotId; index <= endSnapshotId; index++){\r\n            if(_claims[index][msg.sender] > 0){\r\n                uint256 shareToClaim = _claims[index][msg.sender];\r\n                uint256 totalShares = _totalSupplyClaimed[index];\r\n                _claims[index][msg.sender] = 0;\r\n                uint256 totalETHAmount = _totalEthToClaim[index];\r\n                uint256 rewardToClaim = totalETHAmount.mul(shareToClaim).div(totalShares);\r\n                payable(msg.sender).transfer(rewardToClaim);\r\n                emit Withdrawed(msg.sender, index, rewardToClaim);\r\n            }\r\n        }\r\n    }\r\n\r\n\r\n    function currentEthRewards() public view returns(uint256){\r\n           uint256 currentSnapshotId = _token.currentSnapshotId();\r\n           return _totalEthToClaim[currentSnapshotId];\r\n    }\r\n\r\n    function currentClaimedSupply() public view returns(uint256){\r\n           uint256 currentSnapshotId = _token.currentSnapshotId();\r\n           return _totalSupplyClaimed[currentSnapshotId];\r\n    }\r\n\r\n    function ethRewardsAt(uint256 index) public view returns(uint256){\r\n           return _totalEthToClaim[index];\r\n    }\r\n\r\n    function claimedSupplyAt(uint256 index) public view returns(uint256){\r\n           return _totalSupplyClaimed[index];\r\n    }\r\n    /**\r\n    * @dev Return all Staking data for Dashboard platform\r\n     */\r\n    function stakingDataPerUser(uint256 startSnapshotId, uint256 endSnapshotId) public returns(StakingData[] memory stakes){\r\n          uint256 currentSnapshotId = _token.currentSnapshotId();\r\n          require(startSnapshotId > 1, \"Snapshot must be higher than 1\");\r\n          require(endSnapshotId > startSnapshotId, \"end snapshot id must be higher than endSnapshotID\");\r\n          require(endSnapshotId <= currentSnapshotId, \"higher than current snapshot id\");\r\n          uint256 total = endSnapshotId.sub(startSnapshotId);\r\n          stakes = new StakingData[](total);\r\n          for(uint index = 0; index < total; index++){\r\n               uint256 currentSnapshot = index.add(startSnapshotId);\r\n               stakes[index].snapshot = currentSnapshot;\r\n               stakes[index].totalEthToClaim = ethRewardsAt(currentSnapshot);\r\n               stakes[index].myClaim = _claims[currentSnapshot][msg.sender];\r\n               stakes[index].totalClaimed = claimedSupplyAt(currentSnapshotId);\r\n           }\r\n    }\r\n    \r\n\r\n}\r\n",
  "sourcePath": "contracts/StakingRewards.sol",
  "abi": [
    {
      "inputs": [
        {
          "internalType": "contract DexKit",
          "name": "token",
          "type": "address"
        }
      ],
      "stateMutability": "nonpayable",
      "type": "constructor"
    },
    {
      "anonymous": false,
      "inputs": [
        {
          "indexed": true,
          "internalType": "address",
          "name": "from",
          "type": "address"
        },
        {
          "indexed": false,
          "internalType": "uint256",
          "name": "snapshotId",
          "type": "uint256"
        },
        {
          "indexed": false,
          "internalType": "uint256",
          "name": "value",
          "type": "uint256"
        }
      ],
      "name": "Claimed",
      "type": "event"
    },
    {
      "anonymous": false,
      "inputs": [
        {
          "indexed": true,
          "internalType": "address",
          "name": "previousOwner",
          "type": "address"
        },
        {
          "indexed": true,
          "internalType": "address",
          "name": "newOwner",
          "type": "address"
        }
      ],
      "name": "OwnershipTransferred",
      "type": "event"
    },
    {
      "anonymous": false,
      "inputs": [
        {
          "indexed": true,
          "internalType": "address",
          "name": "from",
          "type": "address"
        },
        {
          "indexed": false,
          "internalType": "uint256",
          "name": "snapshotId",
          "type": "uint256"
        },
        {
          "indexed": false,
          "internalType": "uint256",
          "name": "value",
          "type": "uint256"
        }
      ],
      "name": "Withdrawed",
      "type": "event"
    },
    {
      "inputs": [],
      "name": "claimRewards",
      "outputs": [],
      "stateMutability": "nonpayable",
      "type": "function"
    },
    {
      "inputs": [
        {
          "internalType": "uint256",
          "name": "index",
          "type": "uint256"
        }
      ],
      "name": "claimedSupplyAt",
      "outputs": [
        {
          "internalType": "uint256",
          "name": "",
          "type": "uint256"
        }
      ],
      "stateMutability": "view",
      "type": "function"
    },
    {
      "inputs": [],
      "name": "currentClaimedSupply",
      "outputs": [
        {
          "internalType": "uint256",
          "name": "",
          "type": "uint256"
        }
      ],
      "stateMutability": "view",
      "type": "function"
    },
    {
      "inputs": [],
      "name": "currentEthRewards",
      "outputs": [
        {
          "internalType": "uint256",
          "name": "",
          "type": "uint256"
        }
      ],
      "stateMutability": "view",
      "type": "function"
    },
    {
      "inputs": [
        {
          "internalType": "uint256",
          "name": "index",
          "type": "uint256"
        }
      ],
      "name": "ethRewardsAt",
      "outputs": [
        {
          "internalType": "uint256",
          "name": "",
          "type": "uint256"
        }
      ],
      "stateMutability": "view",
      "type": "function"
    },
    {
      "inputs": [],
      "name": "owner",
      "outputs": [
        {
          "internalType": "address",
          "name": "",
          "type": "address"
        }
      ],
      "stateMutability": "view",
      "type": "function"
    },
    {
      "inputs": [],
      "name": "renounceOwnership",
      "outputs": [],
      "stateMutability": "nonpayable",
      "type": "function"
    },
    {
      "inputs": [
        {
          "internalType": "uint256",
          "name": "startSnapshotId",
          "type": "uint256"
        },
        {
          "internalType": "uint256",
          "name": "endSnapshotId",
          "type": "uint256"
        }
      ],
      "name": "stakingDataPerUser",
      "outputs": [
        {
          "components": [
            {
              "internalType": "uint256",
              "name": "snapshot",
              "type": "uint256"
            },
            {
              "internalType": "uint256",
              "name": "totalEthToClaim",
              "type": "uint256"
            },
            {
              "internalType": "uint256",
              "name": "myClaim",
              "type": "uint256"
            },
            {
              "internalType": "uint256",
              "name": "totalClaimed",
              "type": "uint256"
            }
          ],
          "internalType": "struct StakingRewards.StakingData[]",
          "name": "stakes",
          "type": "tuple[]"
        }
      ],
      "stateMutability": "nonpayable",
      "type": "function"
    },
    {
      "inputs": [
        {
          "internalType": "address",
          "name": "newOwner",
          "type": "address"
        }
      ],
      "name": "transferOwnership",
      "outputs": [],
      "stateMutability": "nonpayable",
      "type": "function"
    },
    {
      "inputs": [
        {
          "internalType": "uint256",
          "name": "snapshotId",
          "type": "uint256"
        }
      ],
      "name": "withdrawRewards",
      "outputs": [],
      "stateMutability": "nonpayable",
      "type": "function"
    },
    {
      "inputs": [
        {
          "internalType": "uint256",
          "name": "startSnapshotId",
          "type": "uint256"
        },
        {
          "internalType": "uint256",
          "name": "endSnapshotId",
          "type": "uint256"
        }
      ],
      "name": "withdrawRewardsBulk",
      "outputs": [],
      "stateMutability": "nonpayable",
      "type": "function"
    },
    {
      "stateMutability": "payable",
      "type": "receive"
    }
  ],
  "bytecode": "0x60806040523480156200001157600080fd5b50604051620024c0380380620024c083398181016040528101906200003791906200014e565b6000620000496200012f60201b60201c565b9050806000806101000a81548173ffffffffffffffffffffffffffffffffffffffff021916908373ffffffffffffffffffffffffffffffffffffffff1602179055508073ffffffffffffffffffffffffffffffffffffffff16600073ffffffffffffffffffffffffffffffffffffffff167f8be0079c531659141344cd1fd0a4f28419497f9722a3daafe3b4186f6b6457e060405160405180910390a35080600160006101000a81548173ffffffffffffffffffffffffffffffffffffffff021916908373ffffffffffffffffffffffffffffffffffffffff16021790555050620001dc565b600033905090565b6000815190506200014881620001c2565b92915050565b6000602082840312156200016157600080fd5b6000620001718482850162000137565b91505092915050565b60006200018782620001a2565b9050919050565b60006200019b826200017a565b9050919050565b600073ffffffffffffffffffffffffffffffffffffffff82169050919050565b620001cd816200018e565b8114620001d957600080fd5b50565b6122d480620001ec6000396000f3fe6080604052600436106100a05760003560e01c80637cdc4777116100645780637cdc47771461024d5780638da5cb5b1461028a5780639342c8f4146102b55780639ccf43d2146102de578063f12eb9f61461031b578063f2fde38b1461034657610189565b806309bfa9741461018e5780632b19207d146101b7578063372500ab146101f457806364caef671461020b578063715018a61461023657610189565b36610189576000600160009054906101000a900473ffffffffffffffffffffffffffffffffffffffff1673ffffffffffffffffffffffffffffffffffffffff1663970875ce6040518163ffffffff1660e01b815260040160206040518083038186803b15801561010f57600080fd5b505afa158015610123573d6000803e3d6000fd5b505050506040513d601f19601f820116820180604052508101906101479190611930565b905061016f34600460008481526020019081526020016000205461036f90919063ffffffff16565b600460008381526020019081526020016000208190555050005b600080fd5b34801561019a57600080fd5b506101b560048036038101906101b09190611959565b6103c4565b005b3480156101c357600080fd5b506101de60048036038101906101d99190611907565b610748565b6040516101eb9190612121565b60405180910390f35b34801561020057600080fd5b50610209610765565b005b34801561021757600080fd5b50610220610b90565b60405161022d9190612121565b60405180910390f35b34801561024257600080fd5b5061024b610c4f565b005b34801561025957600080fd5b50610274600480360381019061026f9190611907565b610da2565b6040516102819190612121565b60405180910390f35b34801561029657600080fd5b5061029f610dbf565b6040516102ac9190611ef9565b60405180910390f35b3480156102c157600080fd5b506102dc60048036038101906102d79190611907565b610de8565b005b3480156102ea57600080fd5b5061030560048036038101906103009190611959565b611148565b6040516103129190611f3d565b60405180910390f35b34801561032757600080fd5b5061033061142e565b60405161033d9190612121565b60405180910390f35b34801561035257600080fd5b5061036d600480360381019061036891906118de565b6114ed565b005b6000808284019050838110156103ba576040517f08c379a00000000000000000000000000000000000000000000000000000000081526004016103b190612001565b60405180910390fd5b8091505092915050565b6000600160009054906101000a900473ffffffffffffffffffffffffffffffffffffffff1673ffffffffffffffffffffffffffffffffffffffff1663970875ce6040518163ffffffff1660e01b815260040160206040518083038186803b15801561042e57600080fd5b505afa158015610442573d6000803e3d6000fd5b505050506040513d601f19601f820116820180604052508101906104669190611930565b9050600183116104ab576040517f08c379a00000000000000000000000000000000000000000000000000000000081526004016104a290611fc1565b60405180910390fd5b8282116104ed576040517f08c379a00000000000000000000000000000000000000000000000000000000081526004016104e490611f81565b60405180910390fd5b80821061052f576040517f08c379a0000000000000000000000000000000000000000000000000000000008152600401610526906120e1565b60405180910390fd5b60008390505b8281116107425760006002600083815260200190815260200160002060003373ffffffffffffffffffffffffffffffffffffffff1673ffffffffffffffffffffffffffffffffffffffff1681526020019081526020016000205411156107355760006002600083815260200190815260200160002060003373ffffffffffffffffffffffffffffffffffffffff1673ffffffffffffffffffffffffffffffffffffffff16815260200190815260200160002054905060006003600084815260200190815260200160002054905060006002600085815260200190815260200160002060003373ffffffffffffffffffffffffffffffffffffffff1673ffffffffffffffffffffffffffffffffffffffff1681526020019081526020016000208190555060006004600085815260200190815260200160002054905060006106978361068986856116af90919063ffffffff16565b61171f90919063ffffffff16565b90503373ffffffffffffffffffffffffffffffffffffffff166108fc829081150290604051600060405180830381858888f193505050501580156106df573d6000803e3d6000fd5b503373ffffffffffffffffffffffffffffffffffffffff167f4cdcd27ae88503b2d4d3034a348b78aec00eca6369f48e5002ca3df8686b9b3e868360405161072892919061213c565b60405180910390a2505050505b8080600101915050610535565b50505050565b600060036000838152602001908152602001600020549050919050565b6000600160009054906101000a900473ffffffffffffffffffffffffffffffffffffffff1673ffffffffffffffffffffffffffffffffffffffff1663970875ce6040518163ffffffff1660e01b815260040160206040518083038186803b1580156107cf57600080fd5b505afa1580156107e3573d6000803e3d6000fd5b505050506040513d601f19601f820116820180604052508101906108079190611930565b90506002811161084c576040517f08c379a000000000000000000000000000000000000000000000000000000000815260040161084390611fe1565b60405180910390fd5b600061086260018361176990919063ffffffff16565b90506000600160009054906101000a900473ffffffffffffffffffffffffffffffffffffffff1673ffffffffffffffffffffffffffffffffffffffff16634ee2cd7e33856040518363ffffffff1660e01b81526004016108c3929190611f14565b60206040518083038186803b1580156108db57600080fd5b505afa1580156108ef573d6000803e3d6000fd5b505050506040513d601f19601f820116820180604052508101906109139190611930565b905060006109d6600160009054906101000a900473ffffffffffffffffffffffffffffffffffffffff1673ffffffffffffffffffffffffffffffffffffffff16634ee2cd7e33866040518363ffffffff1660e01b8152600401610977929190611f14565b60206040518083038186803b15801561098f57600080fd5b505afa1580156109a3573d6000803e3d6000fd5b505050506040513d601f19601f820116820180604052508101906109c79190611930565b8361176990919063ffffffff16565b11610a16576040517f08c379a0000000000000000000000000000000000000000000000000000000008152600401610a0d90612081565b60405180910390fd5b60006002600085815260200190815260200160002060003373ffffffffffffffffffffffffffffffffffffffff1673ffffffffffffffffffffffffffffffffffffffff1681526020019081526020016000205414610aa9576040517f08c379a0000000000000000000000000000000000000000000000000000000008152600401610aa090612021565b60405180910390fd5b806002600085815260200190815260200160002060003373ffffffffffffffffffffffffffffffffffffffff1673ffffffffffffffffffffffffffffffffffffffff16815260200190815260200160002081905550610b2481600360008681526020019081526020016000205461036f90919063ffffffff16565b60036000858152602001908152602001600020819055503373ffffffffffffffffffffffffffffffffffffffff167f987d620f307ff6b94d58743cb7a7509f24071586a77759b77c2d4e29f75a2f9a8483604051610b8392919061213c565b60405180910390a2505050565b600080600160009054906101000a900473ffffffffffffffffffffffffffffffffffffffff1673ffffffffffffffffffffffffffffffffffffffff1663970875ce6040518163ffffffff1660e01b815260040160206040518083038186803b158015610bfb57600080fd5b505afa158015610c0f573d6000803e3d6000fd5b505050506040513d601f19601f82011682018060405250810190610c339190611930565b9050600460008281526020019081526020016000205491505090565b610c576117b3565b73ffffffffffffffffffffffffffffffffffffffff1660008054906101000a900473ffffffffffffffffffffffffffffffffffffffff1673ffffffffffffffffffffffffffffffffffffffff1614610ce4576040517f08c379a0000000000000000000000000000000000000000000000000000000008152600401610cdb906120c1565b60405180910390fd5b600073ffffffffffffffffffffffffffffffffffffffff1660008054906101000a900473ffffffffffffffffffffffffffffffffffffffff1673ffffffffffffffffffffffffffffffffffffffff167f8be0079c531659141344cd1fd0a4f28419497f9722a3daafe3b4186f6b6457e060405160405180910390a360008060006101000a81548173ffffffffffffffffffffffffffffffffffffffff021916908373ffffffffffffffffffffffffffffffffffffffff160217905550565b600060046000838152602001908152602001600020549050919050565b60008060009054906101000a900473ffffffffffffffffffffffffffffffffffffffff16905090565b6000600160009054906101000a900473ffffffffffffffffffffffffffffffffffffffff1673ffffffffffffffffffffffffffffffffffffffff1663970875ce6040518163ffffffff1660e01b815260040160206040518083038186803b158015610e5257600080fd5b505afa158015610e66573d6000803e3d6000fd5b505050506040513d601f19601f82011682018060405250810190610e8a9190611930565b905060018211610ecf576040517f08c379a0000000000000000000000000000000000000000000000000000000008152600401610ec690611fc1565b60405180910390fd5b808210610f11576040517f08c379a0000000000000000000000000000000000000000000000000000000008152600401610f08906120e1565b60405180910390fd5b60006002600084815260200190815260200160002060003373ffffffffffffffffffffffffffffffffffffffff1673ffffffffffffffffffffffffffffffffffffffff168152602001908152602001600020541415610fa5576040517f08c379a0000000000000000000000000000000000000000000000000000000008152600401610f9c90612041565b60405180910390fd5b60006002600084815260200190815260200160002060003373ffffffffffffffffffffffffffffffffffffffff1673ffffffffffffffffffffffffffffffffffffffff16815260200190815260200160002054905060006003600085815260200190815260200160002054905060006002600086815260200190815260200160002060003373ffffffffffffffffffffffffffffffffffffffff1673ffffffffffffffffffffffffffffffffffffffff1681526020019081526020016000208190555060006004600086815260200190815260200160002054905060006110a78361109986856116af90919063ffffffff16565b61171f90919063ffffffff16565b90503373ffffffffffffffffffffffffffffffffffffffff166108fc829081150290604051600060405180830381858888f193505050501580156110ef573d6000803e3d6000fd5b503373ffffffffffffffffffffffffffffffffffffffff167f4cdcd27ae88503b2d4d3034a348b78aec00eca6369f48e5002ca3df8686b9b3e878360405161113892919061213c565b60405180910390a2505050505050565b60606000600160009054906101000a900473ffffffffffffffffffffffffffffffffffffffff1673ffffffffffffffffffffffffffffffffffffffff1663970875ce6040518163ffffffff1660e01b815260040160206040518083038186803b1580156111b457600080fd5b505afa1580156111c8573d6000803e3d6000fd5b505050506040513d601f19601f820116820180604052508101906111ec9190611930565b905060018411611231576040517f08c379a000000000000000000000000000000000000000000000000000000000815260040161122890611fc1565b60405180910390fd5b838311611273576040517f08c379a000000000000000000000000000000000000000000000000000000000815260040161126a90612061565b60405180910390fd5b808311156112b6576040517f08c379a00000000000000000000000000000000000000000000000000000000081526004016112ad90612101565b60405180910390fd5b60006112cb858561176990919063ffffffff16565b90508067ffffffffffffffff811180156112e457600080fd5b5060405190808252806020026020018201604052801561131e57816020015b61130b611877565b8152602001906001900390816113035790505b50925060005b81811015611425576000611341878361036f90919063ffffffff16565b90508085838151811061135057fe5b6020026020010151600001818152505061136981610da2565b85838151811061137557fe5b602002602001015160200181815250506002600082815260200190815260200160002060003373ffffffffffffffffffffffffffffffffffffffff1673ffffffffffffffffffffffffffffffffffffffff168152602001908152602001600020548583815181106113e257fe5b602002602001015160400181815250506113fb84610748565b85838151811061140757fe5b60200260200101516060018181525050508080600101915050611324565b50505092915050565b600080600160009054906101000a900473ffffffffffffffffffffffffffffffffffffffff1673ffffffffffffffffffffffffffffffffffffffff1663970875ce6040518163ffffffff1660e01b815260040160206040518083038186803b15801561149957600080fd5b505afa1580156114ad573d6000803e3d6000fd5b505050506040513d601f19601f820116820180604052508101906114d19190611930565b9050600360008281526020019081526020016000205491505090565b6114f56117b3565b73ffffffffffffffffffffffffffffffffffffffff1660008054906101000a900473ffffffffffffffffffffffffffffffffffffffff1673ffffffffffffffffffffffffffffffffffffffff1614611582576040517f08c379a0000000000000000000000000000000000000000000000000000000008152600401611579906120c1565b60405180910390fd5b600073ffffffffffffffffffffffffffffffffffffffff168173ffffffffffffffffffffffffffffffffffffffff1614156115f2576040517f08c379a00000000000000000000000000000000000000000000000000000000081526004016115e990611fa1565b60405180910390fd5b8073ffffffffffffffffffffffffffffffffffffffff1660008054906101000a900473ffffffffffffffffffffffffffffffffffffffff1673ffffffffffffffffffffffffffffffffffffffff167f8be0079c531659141344cd1fd0a4f28419497f9722a3daafe3b4186f6b6457e060405160405180910390a3806000806101000a81548173ffffffffffffffffffffffffffffffffffffffff021916908373ffffffffffffffffffffffffffffffffffffffff16021790555050565b6000808314156116c25760009050611719565b60008284029050828482816116d357fe5b0414611714576040517f08c379a000000000000000000000000000000000000000000000000000000000815260040161170b906120a1565b60405180910390fd5b809150505b92915050565b600061176183836040518060400160405280601a81526020017f536166654d6174683a206469766973696f6e206279207a65726f0000000000008152506117bb565b905092915050565b60006117ab83836040518060400160405280601e81526020017f536166654d6174683a207375627472616374696f6e206f766572666c6f77000081525061181c565b905092915050565b600033905090565b60008083118290611802576040517f08c379a00000000000000000000000000000000000000000000000000000000081526004016117f99190611f5f565b60405180910390fd5b50600083858161180e57fe5b049050809150509392505050565b6000838311158290611864576040517f08c379a000000000000000000000000000000000000000000000000000000000815260040161185b9190611f5f565b60405180910390fd5b5060008385039050809150509392505050565b6040518060800160405280600081526020016000815260200160008152602001600081525090565b6000813590506118ae81612270565b92915050565b6000813590506118c381612287565b92915050565b6000815190506118d881612287565b92915050565b6000602082840312156118f057600080fd5b60006118fe8482850161189f565b91505092915050565b60006020828403121561191957600080fd5b6000611927848285016118b4565b91505092915050565b60006020828403121561194257600080fd5b6000611950848285016118c9565b91505092915050565b6000806040838503121561196c57600080fd5b600061197a858286016118b4565b925050602061198b858286016118b4565b9150509250929050565b60006119a18383611e86565b60808301905092915050565b6119b6816121f6565b82525050565b6119c5816121ba565b82525050565b60006119d682612175565b6119e08185612198565b93506119eb83612165565b8060005b83811015611a1c578151611a038882611995565b9750611a0e8361218b565b9250506001810190506119ef565b5085935050505092915050565b6000611a3482612180565b611a3e81856121a9565b9350611a4e81856020860161222c565b611a578161225f565b840191505092915050565b6000611a6f6030836121a9565b91507f656e6420736e617073686f74206964206d75737420626520686967686572207460008301527f68616e20656e64536e6170686f744944000000000000000000000000000000006020830152604082019050919050565b6000611ad56026836121a9565b91507f4f776e61626c653a206e6577206f776e657220697320746865207a65726f206160008301527f64647265737300000000000000000000000000000000000000000000000000006020830152604082019050919050565b6000611b3b601e836121a9565b91507f536e617073686f74206d75737420626520686967686572207468616e203100006000830152602082019050919050565b6000611b7b601e836121a9565b91507f536e617073686f74206d75737420626520686967686572207468616e203200006000830152602082019050919050565b6000611bbb601b836121a9565b91507f536166654d6174683a206164646974696f6e206f766572666c6f7700000000006000830152602082019050919050565b6000611bfb600f836121a9565b91507f616c726561647920636c61696d656400000000000000000000000000000000006000830152602082019050919050565b6000611c3b6012836121a9565b91507f616c7265616479207769746864726177656400000000000000000000000000006000830152602082019050919050565b6000611c7b6031836121a9565b91507f656e6420736e617073686f74206964206d75737420626520686967686572207460008301527f68616e20656e64536e617073686f7449440000000000000000000000000000006020830152604082019050919050565b6000611ce16037836121a9565b91507f796f7572206e65742062616c616e6365206e6565647320746f20626520706f7360008301527f6974697665206265747765656e20736e617073686f74730000000000000000006020830152604082019050919050565b6000611d476021836121a9565b91507f536166654d6174683a206d756c7469706c69636174696f6e206f766572666c6f60008301527f77000000000000000000000000000000000000000000000000000000000000006020830152604082019050919050565b6000611dad6020836121a9565b91507f4f776e61626c653a2063616c6c6572206973206e6f7420746865206f776e65726000830152602082019050919050565b6000611ded6024836121a9565b91507f63616e206e6f742077697468647261772061742063757272656e7420736e617060008301527f686f7374000000000000000000000000000000000000000000000000000000006020830152604082019050919050565b6000611e53601f836121a9565b91507f686967686572207468616e2063757272656e7420736e617073686f74206964006000830152602082019050919050565b608082016000820151611e9c6000850182611edb565b506020820151611eaf6020850182611edb565b506040820151611ec26040850182611edb565b506060820151611ed56060850182611edb565b50505050565b611ee4816121ec565b82525050565b611ef3816121ec565b82525050565b6000602082019050611f0e60008301846119bc565b92915050565b6000604082019050611f2960008301856119ad565b611f366020830184611eea565b9392505050565b60006020820190508181036000830152611f5781846119cb565b905092915050565b60006020820190508181036000830152611f798184611a29565b905092915050565b60006020820190508181036000830152611f9a81611a62565b9050919050565b60006020820190508181036000830152611fba81611ac8565b9050919050565b60006020820190508181036000830152611fda81611b2e565b9050919050565b60006020820190508181036000830152611ffa81611b6e565b9050919050565b6000602082019050818103600083015261201a81611bae565b9050919050565b6000602082019050818103600083015261203a81611bee565b9050919050565b6000602082019050818103600083015261205a81611c2e565b9050919050565b6000602082019050818103600083015261207a81611c6e565b9050919050565b6000602082019050818103600083015261209a81611cd4565b9050919050565b600060208201905081810360008301526120ba81611d3a565b9050919050565b600060208201905081810360008301526120da81611da0565b9050919050565b600060208201905081810360008301526120fa81611de0565b9050919050565b6000602082019050818103600083015261211a81611e46565b9050919050565b60006020820190506121366000830184611eea565b92915050565b60006040820190506121516000830185611eea565b61215e6020830184611eea565b9392505050565b6000819050602082019050919050565b600081519050919050565b600081519050919050565b6000602082019050919050565b600082825260208201905092915050565b600082825260208201905092915050565b60006121c5826121cc565b9050919050565b600073ffffffffffffffffffffffffffffffffffffffff82169050919050565b6000819050919050565b600061220182612208565b9050919050565b60006122138261221a565b9050919050565b6000612225826121cc565b9050919050565b60005b8381101561224a57808201518184015260208101905061222f565b83811115612259576000848401525b50505050565b6000601f19601f8301169050919050565b612279816121ba565b811461228457600080fd5b50565b612290816121ec565b811461229b57600080fd5b5056fea264697066735822122013fd1ffc0eec7cba0ab73bc7407e3bca3eea90c550888d5c07bced4e43c348be64736f6c634300060c0033",
  "compiler": {
    "name": "solc",
    "version": "0.6.12+commit.27d51765.Emscripten.clang",
    "optimizer": {
      "enabled": false,
      "runs": 200
    },
    "evmVersion": "petersburg"
  }
}