{
  "fileName": "StakingTokenRewards.sol",
  "contractName": "StakingTokenRewards",
  "source": "// contracts/BitBoyToken.sol\r\n// SPDX-License-Identifier: MIT\r\npragma solidity ^0.6.0;\r\n\r\npragma experimental ABIEncoderV2;\r\nimport \"./BITTOKEN.sol\";\r\nimport \"@openzeppelin/contracts/access/Ownable.sol\";\r\nimport \"@openzeppelin/contracts/token/ERC20/SafeERC20.sol\";\r\n\r\n\r\ncontract StakingTokenRewards is Ownable {\r\n\r\n    using SafeMath for uint256;\r\n    using SafeERC20 for BITTOKEN;\r\n\r\n    BITTOKEN _token;\r\n\r\n    struct StakingData{\r\n        uint256 snapshot;\r\n        uint256 totalTokenToClaim;\r\n        uint256 myClaim;\r\n        uint256 totalClaimed;\r\n         \r\n    }\r\n\r\n    mapping (uint256 => mapping (address => uint256)) private _claims;\r\n\r\n    mapping (uint256 => uint256) private _totalSupplyClaimed;\r\n\r\n    mapping (uint256 => uint256) private _totalTokenToClaim;\r\n\r\n    event Claimed(address indexed from, uint256 snapshotId, uint256 value);\r\n\r\n    event Withdrawed(address indexed from, uint256 snapshotId, uint256 value);\r\n\r\n    constructor(BITTOKEN token ) public {\r\n        _token = token;\r\n    }\r\n\r\n    /**\r\n    * @dev add Token rewards\r\n     */\r\n    function addTokenRewards(uint256 amount) public {\r\n        require(amount > 0, \"Amount Higher than zero\");\r\n        _token.safeTransferFrom(msg.sender, address(this), amount);\r\n        uint256 currentSnapshotId = _token.currentSnapshotId();\r\n        _totalTokenToClaim[currentSnapshotId] = _totalTokenToClaim[currentSnapshotId].add(amount);\r\n    }\r\n\r\n\r\n    /**\r\n     *\r\n     * @dev user to claim needs to have a positive net balance between two consecutive snaphots\r\n     */\r\n    function claimRewards() public {\r\n        uint256 currentSnapshotId = _token.currentSnapshotId();\r\n        require(currentSnapshotId > 2, \"Snapshot must be higher than 2\");\r\n        uint256 previousSnapshot = currentSnapshotId.sub(1);\r\n        uint256 atualBalance = _token.balanceOfAt(msg.sender, currentSnapshotId); \r\n        require(atualBalance.sub(_token.balanceOfAt(msg.sender, previousSnapshot)) > 0, \"your net balance needs to be positive between snapshots\");\r\n        require(_claims[currentSnapshotId][msg.sender] == 0, \"already claimed\");\r\n        _claims[currentSnapshotId][msg.sender] = atualBalance;\r\n        _totalSupplyClaimed[currentSnapshotId] = _totalSupplyClaimed[currentSnapshotId].add(atualBalance);\r\n        emit Claimed(msg.sender, currentSnapshotId, atualBalance);\r\n    }\r\n\r\n    function withdrawRewards(uint256 snapshotId) public {\r\n        uint256 currentSnapshotId = _token.currentSnapshotId();\r\n        require(snapshotId > 1, \"Snapshot must be higher than 1\");\r\n        require(snapshotId < currentSnapshotId, \"can not withdraw at current snaphost\");\r\n        // We can safely assume if user has zero balance has already withdraw for this snapshotID\r\n        require(_claims[snapshotId][msg.sender] != 0, \"already withdrawed\");\r\n        uint256 shareToClaim = _claims[snapshotId][msg.sender];\r\n        uint256 totalShares = _totalSupplyClaimed[snapshotId];\r\n        _claims[snapshotId][msg.sender] = 0;\r\n        uint256 totalTokenAmount = _totalTokenToClaim[snapshotId];\r\n        uint256 rewardToClaim = totalTokenAmount.mul(shareToClaim).div(totalShares);\r\n        _token.safeTransfer(msg.sender, rewardToClaim);\r\n        emit Withdrawed(msg.sender, snapshotId, rewardToClaim);\r\n    }\r\n    /**\r\n    * Withdraw multiple rewards at once\r\n    *\r\n     */\r\n    function withdrawRewardsBulk(uint256 startSnapshotId, uint256 endSnapshotId) public {\r\n        uint256 currentSnapshotId = _token.currentSnapshotId();\r\n        require(startSnapshotId > 1, \"Snapshot must be higher than 1\");\r\n        require(endSnapshotId > startSnapshotId, \"end snapshot id must be higher than endSnaphotID\");\r\n        require(endSnapshotId < currentSnapshotId, \"can not withdraw at current snaphost\");\r\n       \r\n        for(uint index = startSnapshotId; index <= endSnapshotId; index++){\r\n         // We can safely assume if user has zero balance has already withdraw for this snapshotID\r\n            require(_claims[index][msg.sender] != 0, \"already withdrawed\");\r\n            uint256 shareToClaim = _claims[index][msg.sender];\r\n            uint256 totalShares = _totalSupplyClaimed[index];\r\n            _claims[index][msg.sender] = 0;\r\n            uint256 totalTokenAmount = _totalTokenToClaim[index];\r\n            uint256 rewardToClaim = totalTokenAmount.mul(shareToClaim).div(totalShares);\r\n            _token.safeTransfer(msg.sender, rewardToClaim);\r\n            emit Withdrawed(msg.sender, index, rewardToClaim);\r\n        }\r\n    }\r\n\r\n\r\n    function currentTokenRewards() public view returns(uint256){\r\n           uint256 currentSnapshotId = _token.currentSnapshotId();\r\n           return _totalTokenToClaim[currentSnapshotId];\r\n    }\r\n\r\n    function currentClaimedSupply() public view returns(uint256){\r\n           uint256 currentSnapshotId = _token.currentSnapshotId();\r\n           return _totalSupplyClaimed[currentSnapshotId];\r\n    }\r\n\r\n    function tokenRewardsAt(uint256 index) public view returns(uint256){\r\n           return _totalTokenToClaim[index];\r\n    }\r\n\r\n    function claimedSupplyAt(uint256 index) public view returns(uint256){\r\n           return _totalSupplyClaimed[index];\r\n    }\r\n    /**\r\n    * @dev Return all Staking data for Dashboard platform\r\n     */\r\n    function stakingDataPerUser(uint256 startSnapshotId, uint256 endSnapshotId) public returns(StakingData[] memory stakes){\r\n          uint256 currentSnapshotId = _token.currentSnapshotId();\r\n          require(startSnapshotId > 1, \"Snapshot must be higher than 1\");\r\n          require(endSnapshotId > startSnapshotId, \"end snapshot id must be higher than endSnapshotID\");\r\n          require(endSnapshotId <= currentSnapshotId, \"higher than current snapshot id\");\r\n          uint256 total = endSnapshotId.sub(startSnapshotId);\r\n          stakes = new StakingData[](total);\r\n          for(uint index = 0; index < total; index++){\r\n               uint256 currentSnapshot = index.add(startSnapshotId);\r\n               stakes[index].snapshot = currentSnapshot;\r\n               stakes[index].totalTokenToClaim = tokenRewardsAt(currentSnapshot);\r\n               stakes[index].myClaim = _claims[currentSnapshot][msg.sender];\r\n               stakes[index].totalClaimed = claimedSupplyAt(currentSnapshotId);\r\n           }\r\n    }\r\n    \r\n\r\n}\r\n",
  "sourcePath": "contracts/StakingTokenRewards.sol",
  "abi": [
    {
      "inputs": [
        {
          "internalType": "contract BITTOKEN",
          "name": "token",
          "type": "address"
        }
      ],
      "stateMutability": "nonpayable",
      "type": "constructor"
    },
    {
      "anonymous": false,
      "inputs": [
        {
          "indexed": true,
          "internalType": "address",
          "name": "from",
          "type": "address"
        },
        {
          "indexed": false,
          "internalType": "uint256",
          "name": "snapshotId",
          "type": "uint256"
        },
        {
          "indexed": false,
          "internalType": "uint256",
          "name": "value",
          "type": "uint256"
        }
      ],
      "name": "Claimed",
      "type": "event"
    },
    {
      "anonymous": false,
      "inputs": [
        {
          "indexed": true,
          "internalType": "address",
          "name": "previousOwner",
          "type": "address"
        },
        {
          "indexed": true,
          "internalType": "address",
          "name": "newOwner",
          "type": "address"
        }
      ],
      "name": "OwnershipTransferred",
      "type": "event"
    },
    {
      "anonymous": false,
      "inputs": [
        {
          "indexed": true,
          "internalType": "address",
          "name": "from",
          "type": "address"
        },
        {
          "indexed": false,
          "internalType": "uint256",
          "name": "snapshotId",
          "type": "uint256"
        },
        {
          "indexed": false,
          "internalType": "uint256",
          "name": "value",
          "type": "uint256"
        }
      ],
      "name": "Withdrawed",
      "type": "event"
    },
    {
      "inputs": [
        {
          "internalType": "uint256",
          "name": "amount",
          "type": "uint256"
        }
      ],
      "name": "addTokenRewards",
      "outputs": [],
      "stateMutability": "nonpayable",
      "type": "function"
    },
    {
      "inputs": [],
      "name": "claimRewards",
      "outputs": [],
      "stateMutability": "nonpayable",
      "type": "function"
    },
    {
      "inputs": [
        {
          "internalType": "uint256",
          "name": "index",
          "type": "uint256"
        }
      ],
      "name": "claimedSupplyAt",
      "outputs": [
        {
          "internalType": "uint256",
          "name": "",
          "type": "uint256"
        }
      ],
      "stateMutability": "view",
      "type": "function"
    },
    {
      "inputs": [],
      "name": "currentClaimedSupply",
      "outputs": [
        {
          "internalType": "uint256",
          "name": "",
          "type": "uint256"
        }
      ],
      "stateMutability": "view",
      "type": "function"
    },
    {
      "inputs": [],
      "name": "currentTokenRewards",
      "outputs": [
        {
          "internalType": "uint256",
          "name": "",
          "type": "uint256"
        }
      ],
      "stateMutability": "view",
      "type": "function"
    },
    {
      "inputs": [],
      "name": "owner",
      "outputs": [
        {
          "internalType": "address",
          "name": "",
          "type": "address"
        }
      ],
      "stateMutability": "view",
      "type": "function"
    },
    {
      "inputs": [],
      "name": "renounceOwnership",
      "outputs": [],
      "stateMutability": "nonpayable",
      "type": "function"
    },
    {
      "inputs": [
        {
          "internalType": "uint256",
          "name": "startSnapshotId",
          "type": "uint256"
        },
        {
          "internalType": "uint256",
          "name": "endSnapshotId",
          "type": "uint256"
        }
      ],
      "name": "stakingDataPerUser",
      "outputs": [
        {
          "components": [
            {
              "internalType": "uint256",
              "name": "snapshot",
              "type": "uint256"
            },
            {
              "internalType": "uint256",
              "name": "totalTokenToClaim",
              "type": "uint256"
            },
            {
              "internalType": "uint256",
              "name": "myClaim",
              "type": "uint256"
            },
            {
              "internalType": "uint256",
              "name": "totalClaimed",
              "type": "uint256"
            }
          ],
          "internalType": "struct StakingTokenRewards.StakingData[]",
          "name": "stakes",
          "type": "tuple[]"
        }
      ],
      "stateMutability": "nonpayable",
      "type": "function"
    },
    {
      "inputs": [
        {
          "internalType": "uint256",
          "name": "index",
          "type": "uint256"
        }
      ],
      "name": "tokenRewardsAt",
      "outputs": [
        {
          "internalType": "uint256",
          "name": "",
          "type": "uint256"
        }
      ],
      "stateMutability": "view",
      "type": "function"
    },
    {
      "inputs": [
        {
          "internalType": "address",
          "name": "newOwner",
          "type": "address"
        }
      ],
      "name": "transferOwnership",
      "outputs": [],
      "stateMutability": "nonpayable",
      "type": "function"
    },
    {
      "inputs": [
        {
          "internalType": "uint256",
          "name": "snapshotId",
          "type": "uint256"
        }
      ],
      "name": "withdrawRewards",
      "outputs": [],
      "stateMutability": "nonpayable",
      "type": "function"
    },
    {
      "inputs": [
        {
          "internalType": "uint256",
          "name": "startSnapshotId",
          "type": "uint256"
        },
        {
          "internalType": "uint256",
          "name": "endSnapshotId",
          "type": "uint256"
        }
      ],
      "name": "withdrawRewardsBulk",
      "outputs": [],
      "stateMutability": "nonpayable",
      "type": "function"
    }
  ],
  "bytecode": "0x60806040523480156200001157600080fd5b5060405162002af638038062002af683398181016040528101906200003791906200014e565b6000620000496200012f60201b60201c565b9050806000806101000a81548173ffffffffffffffffffffffffffffffffffffffff021916908373ffffffffffffffffffffffffffffffffffffffff1602179055508073ffffffffffffffffffffffffffffffffffffffff16600073ffffffffffffffffffffffffffffffffffffffff167f8be0079c531659141344cd1fd0a4f28419497f9722a3daafe3b4186f6b6457e060405160405180910390a35080600160006101000a81548173ffffffffffffffffffffffffffffffffffffffff021916908373ffffffffffffffffffffffffffffffffffffffff16021790555050620001dc565b600033905090565b6000815190506200014881620001c2565b92915050565b6000602082840312156200016157600080fd5b6000620001718482850162000137565b91505092915050565b60006200018782620001a2565b9050919050565b60006200019b826200017a565b9050919050565b600073ffffffffffffffffffffffffffffffffffffffff82169050919050565b620001cd816200018e565b8114620001d957600080fd5b50565b61290a80620001ec6000396000f3fe608060405234801561001057600080fd5b50600436106100b45760003560e01c80639342c8f4116100715780639342c8f4146101535780639ccf43d21461016f578063a86bf3351461019f578063d91cddce146101bd578063f12eb9f6146101ed578063f2fde38b1461020b576100b4565b806309bfa974146100b95780632a977a40146100d55780632b19207d146100f1578063372500ab14610121578063715018a61461012b5780638da5cb5b14610135575b600080fd5b6100d360048036038101906100ce9190611d68565b610227565b005b6100ef60048036038101906100ea9190611d16565b6105eb565b005b61010b60048036038101906101069190611d16565b610762565b604051610118919061271e565b60405180910390f35b61012961077f565b005b610133610baa565b005b61013d610cfd565b60405161014a9190612436565b60405180910390f35b61016d60048036038101906101689190611d16565b610d26565b005b61018960048036038101906101849190611d68565b61108c565b60405161019691906124da565b60405180910390f35b6101a7611372565b6040516101b4919061271e565b60405180910390f35b6101d760048036038101906101d29190611d16565b611431565b6040516101e4919061271e565b60405180910390f35b6101f561144e565b604051610202919061271e565b60405180910390f35b61022560048036038101906102209190611cc4565b61150d565b005b6000600160009054906101000a900473ffffffffffffffffffffffffffffffffffffffff1673ffffffffffffffffffffffffffffffffffffffff1663970875ce6040518163ffffffff1660e01b815260040160206040518083038186803b15801561029157600080fd5b505afa1580156102a5573d6000803e3d6000fd5b505050506040513d601f19601f820116820180604052508101906102c99190611d3f565b90506001831161030e576040517f08c379a00000000000000000000000000000000000000000000000000000000081526004016103059061255e565b60405180910390fd5b828211610350576040517f08c379a00000000000000000000000000000000000000000000000000000000081526004016103479061251e565b60405180910390fd5b808210610392576040517f08c379a0000000000000000000000000000000000000000000000000000000008152600401610389906126de565b60405180910390fd5b60008390505b8281116105e55760006002600083815260200190815260200160002060003373ffffffffffffffffffffffffffffffffffffffff1673ffffffffffffffffffffffffffffffffffffffff168152602001908152602001600020541415610433576040517f08c379a000000000000000000000000000000000000000000000000000000000815260040161042a906125de565b60405180910390fd5b60006002600083815260200190815260200160002060003373ffffffffffffffffffffffffffffffffffffffff1673ffffffffffffffffffffffffffffffffffffffff16815260200190815260200160002054905060006003600084815260200190815260200160002054905060006002600085815260200190815260200160002060003373ffffffffffffffffffffffffffffffffffffffff1673ffffffffffffffffffffffffffffffffffffffff1681526020019081526020016000208190555060006004600085815260200190815260200160002054905060006105358361052786856116cf90919063ffffffff16565b61173f90919063ffffffff16565b90506105843382600160009054906101000a900473ffffffffffffffffffffffffffffffffffffffff1673ffffffffffffffffffffffffffffffffffffffff166117899092919063ffffffff16565b3373ffffffffffffffffffffffffffffffffffffffff167f4cdcd27ae88503b2d4d3034a348b78aec00eca6369f48e5002ca3df8686b9b3e86836040516105cc929190612739565b60405180910390a2505050508080600101915050610398565b50505050565b6000811161062e576040517f08c379a00000000000000000000000000000000000000000000000000000000081526004016106259061267e565b60405180910390fd5b61067d333083600160009054906101000a900473ffffffffffffffffffffffffffffffffffffffff1673ffffffffffffffffffffffffffffffffffffffff1661180f909392919063ffffffff16565b6000600160009054906101000a900473ffffffffffffffffffffffffffffffffffffffff1673ffffffffffffffffffffffffffffffffffffffff1663970875ce6040518163ffffffff1660e01b815260040160206040518083038186803b1580156106e757600080fd5b505afa1580156106fb573d6000803e3d6000fd5b505050506040513d601f19601f8201168201806040525081019061071f9190611d3f565b905061074782600460008481526020019081526020016000205461189890919063ffffffff16565b60046000838152602001908152602001600020819055505050565b600060036000838152602001908152602001600020549050919050565b6000600160009054906101000a900473ffffffffffffffffffffffffffffffffffffffff1673ffffffffffffffffffffffffffffffffffffffff1663970875ce6040518163ffffffff1660e01b815260040160206040518083038186803b1580156107e957600080fd5b505afa1580156107fd573d6000803e3d6000fd5b505050506040513d601f19601f820116820180604052508101906108219190611d3f565b905060028111610866576040517f08c379a000000000000000000000000000000000000000000000000000000000815260040161085d9061257e565b60405180910390fd5b600061087c6001836118ed90919063ffffffff16565b90506000600160009054906101000a900473ffffffffffffffffffffffffffffffffffffffff1673ffffffffffffffffffffffffffffffffffffffff16634ee2cd7e33856040518363ffffffff1660e01b81526004016108dd929190612451565b60206040518083038186803b1580156108f557600080fd5b505afa158015610909573d6000803e3d6000fd5b505050506040513d601f19601f8201168201806040525081019061092d9190611d3f565b905060006109f0600160009054906101000a900473ffffffffffffffffffffffffffffffffffffffff1673ffffffffffffffffffffffffffffffffffffffff16634ee2cd7e33866040518363ffffffff1660e01b8152600401610991929190612451565b60206040518083038186803b1580156109a957600080fd5b505afa1580156109bd573d6000803e3d6000fd5b505050506040513d601f19601f820116820180604052508101906109e19190611d3f565b836118ed90919063ffffffff16565b11610a30576040517f08c379a0000000000000000000000000000000000000000000000000000000008152600401610a279061261e565b60405180910390fd5b60006002600085815260200190815260200160002060003373ffffffffffffffffffffffffffffffffffffffff1673ffffffffffffffffffffffffffffffffffffffff1681526020019081526020016000205414610ac3576040517f08c379a0000000000000000000000000000000000000000000000000000000008152600401610aba906125be565b60405180910390fd5b806002600085815260200190815260200160002060003373ffffffffffffffffffffffffffffffffffffffff1673ffffffffffffffffffffffffffffffffffffffff16815260200190815260200160002081905550610b3e81600360008681526020019081526020016000205461189890919063ffffffff16565b60036000858152602001908152602001600020819055503373ffffffffffffffffffffffffffffffffffffffff167f987d620f307ff6b94d58743cb7a7509f24071586a77759b77c2d4e29f75a2f9a8483604051610b9d929190612739565b60405180910390a2505050565b610bb2611937565b73ffffffffffffffffffffffffffffffffffffffff1660008054906101000a900473ffffffffffffffffffffffffffffffffffffffff1673ffffffffffffffffffffffffffffffffffffffff1614610c3f576040517f08c379a0000000000000000000000000000000000000000000000000000000008152600401610c369061265e565b60405180910390fd5b600073ffffffffffffffffffffffffffffffffffffffff1660008054906101000a900473ffffffffffffffffffffffffffffffffffffffff1673ffffffffffffffffffffffffffffffffffffffff167f8be0079c531659141344cd1fd0a4f28419497f9722a3daafe3b4186f6b6457e060405160405180910390a360008060006101000a81548173ffffffffffffffffffffffffffffffffffffffff021916908373ffffffffffffffffffffffffffffffffffffffff160217905550565b60008060009054906101000a900473ffffffffffffffffffffffffffffffffffffffff16905090565b6000600160009054906101000a900473ffffffffffffffffffffffffffffffffffffffff1673ffffffffffffffffffffffffffffffffffffffff1663970875ce6040518163ffffffff1660e01b815260040160206040518083038186803b158015610d9057600080fd5b505afa158015610da4573d6000803e3d6000fd5b505050506040513d601f19601f82011682018060405250810190610dc89190611d3f565b905060018211610e0d576040517f08c379a0000000000000000000000000000000000000000000000000000000008152600401610e049061255e565b60405180910390fd5b808210610e4f576040517f08c379a0000000000000000000000000000000000000000000000000000000008152600401610e46906126de565b60405180910390fd5b60006002600084815260200190815260200160002060003373ffffffffffffffffffffffffffffffffffffffff1673ffffffffffffffffffffffffffffffffffffffff168152602001908152602001600020541415610ee3576040517f08c379a0000000000000000000000000000000000000000000000000000000008152600401610eda906125de565b60405180910390fd5b60006002600084815260200190815260200160002060003373ffffffffffffffffffffffffffffffffffffffff1673ffffffffffffffffffffffffffffffffffffffff16815260200190815260200160002054905060006003600085815260200190815260200160002054905060006002600086815260200190815260200160002060003373ffffffffffffffffffffffffffffffffffffffff1673ffffffffffffffffffffffffffffffffffffffff168152602001908152602001600020819055506000600460008681526020019081526020016000205490506000610fe583610fd786856116cf90919063ffffffff16565b61173f90919063ffffffff16565b90506110343382600160009054906101000a900473ffffffffffffffffffffffffffffffffffffffff1673ffffffffffffffffffffffffffffffffffffffff166117899092919063ffffffff16565b3373ffffffffffffffffffffffffffffffffffffffff167f4cdcd27ae88503b2d4d3034a348b78aec00eca6369f48e5002ca3df8686b9b3e878360405161107c929190612739565b60405180910390a2505050505050565b60606000600160009054906101000a900473ffffffffffffffffffffffffffffffffffffffff1673ffffffffffffffffffffffffffffffffffffffff1663970875ce6040518163ffffffff1660e01b815260040160206040518083038186803b1580156110f857600080fd5b505afa15801561110c573d6000803e3d6000fd5b505050506040513d601f19601f820116820180604052508101906111309190611d3f565b905060018411611175576040517f08c379a000000000000000000000000000000000000000000000000000000000815260040161116c9061255e565b60405180910390fd5b8383116111b7576040517f08c379a00000000000000000000000000000000000000000000000000000000081526004016111ae906125fe565b60405180910390fd5b808311156111fa576040517f08c379a00000000000000000000000000000000000000000000000000000000081526004016111f1906126fe565b60405180910390fd5b600061120f85856118ed90919063ffffffff16565b90508067ffffffffffffffff8111801561122857600080fd5b5060405190808252806020026020018201604052801561126257816020015b61124f611c48565b8152602001906001900390816112475790505b50925060005b81811015611369576000611285878361189890919063ffffffff16565b90508085838151811061129457fe5b602002602001015160000181815250506112ad81611431565b8583815181106112b957fe5b602002602001015160200181815250506002600082815260200190815260200160002060003373ffffffffffffffffffffffffffffffffffffffff1673ffffffffffffffffffffffffffffffffffffffff1681526020019081526020016000205485838151811061132657fe5b6020026020010151604001818152505061133f84610762565b85838151811061134b57fe5b60200260200101516060018181525050508080600101915050611268565b50505092915050565b600080600160009054906101000a900473ffffffffffffffffffffffffffffffffffffffff1673ffffffffffffffffffffffffffffffffffffffff1663970875ce6040518163ffffffff1660e01b815260040160206040518083038186803b1580156113dd57600080fd5b505afa1580156113f1573d6000803e3d6000fd5b505050506040513d601f19601f820116820180604052508101906114159190611d3f565b9050600460008281526020019081526020016000205491505090565b600060046000838152602001908152602001600020549050919050565b600080600160009054906101000a900473ffffffffffffffffffffffffffffffffffffffff1673ffffffffffffffffffffffffffffffffffffffff1663970875ce6040518163ffffffff1660e01b815260040160206040518083038186803b1580156114b957600080fd5b505afa1580156114cd573d6000803e3d6000fd5b505050506040513d601f19601f820116820180604052508101906114f19190611d3f565b9050600360008281526020019081526020016000205491505090565b611515611937565b73ffffffffffffffffffffffffffffffffffffffff1660008054906101000a900473ffffffffffffffffffffffffffffffffffffffff1673ffffffffffffffffffffffffffffffffffffffff16146115a2576040517f08c379a00000000000000000000000000000000000000000000000000000000081526004016115999061265e565b60405180910390fd5b600073ffffffffffffffffffffffffffffffffffffffff168173ffffffffffffffffffffffffffffffffffffffff161415611612576040517f08c379a00000000000000000000000000000000000000000000000000000000081526004016116099061253e565b60405180910390fd5b8073ffffffffffffffffffffffffffffffffffffffff1660008054906101000a900473ffffffffffffffffffffffffffffffffffffffff1673ffffffffffffffffffffffffffffffffffffffff167f8be0079c531659141344cd1fd0a4f28419497f9722a3daafe3b4186f6b6457e060405160405180910390a3806000806101000a81548173ffffffffffffffffffffffffffffffffffffffff021916908373ffffffffffffffffffffffffffffffffffffffff16021790555050565b6000808314156116e25760009050611739565b60008284029050828482816116f357fe5b0414611734576040517f08c379a000000000000000000000000000000000000000000000000000000000815260040161172b9061263e565b60405180910390fd5b809150505b92915050565b600061178183836040518060400160405280601a81526020017f536166654d6174683a206469766973696f6e206279207a65726f00000000000081525061193f565b905092915050565b61180a8363a9059cbb60e01b84846040516024016117a89291906124b1565b604051602081830303815290604052907bffffffffffffffffffffffffffffffffffffffffffffffffffffffff19166020820180517bffffffffffffffffffffffffffffffffffffffffffffffffffffffff83818316178352505050506119a0565b505050565b611892846323b872dd60e01b8585856040516024016118309392919061247a565b604051602081830303815290604052907bffffffffffffffffffffffffffffffffffffffffffffffffffffffff19166020820180517bffffffffffffffffffffffffffffffffffffffffffffffffffffffff83818316178352505050506119a0565b50505050565b6000808284019050838110156118e3576040517f08c379a00000000000000000000000000000000000000000000000000000000081526004016118da9061259e565b60405180910390fd5b8091505092915050565b600061192f83836040518060400160405280601e81526020017f536166654d6174683a207375627472616374696f6e206f766572666c6f770000815250611a67565b905092915050565b600033905090565b60008083118290611986576040517f08c379a000000000000000000000000000000000000000000000000000000000815260040161197d91906124fc565b60405180910390fd5b50600083858161199257fe5b049050809150509392505050565b6060611a02826040518060400160405280602081526020017f5361666545524332303a206c6f772d6c6576656c2063616c6c206661696c65648152508573ffffffffffffffffffffffffffffffffffffffff16611ac29092919063ffffffff16565b9050600081511115611a625780806020019051810190611a229190611ced565b611a61576040517f08c379a0000000000000000000000000000000000000000000000000000000008152600401611a58906126be565b60405180910390fd5b5b505050565b6000838311158290611aaf576040517f08c379a0000000000000000000000000000000000000000000000000000000008152600401611aa691906124fc565b60405180910390fd5b5060008385039050809150509392505050565b6060611ad18484600085611ada565b90509392505050565b6060611ae585611bfd565b611b24576040517f08c379a0000000000000000000000000000000000000000000000000000000008152600401611b1b9061269e565b60405180910390fd5b600060608673ffffffffffffffffffffffffffffffffffffffff168587604051611b4e919061241f565b60006040518083038185875af1925050503d8060008114611b8b576040519150601f19603f3d011682016040523d82523d6000602084013e611b90565b606091505b50915091508115611ba5578092505050611bf5565b600081511115611bb85780518082602001fd5b836040517f08c379a0000000000000000000000000000000000000000000000000000000008152600401611bec91906124fc565b60405180910390fd5b949350505050565b60008060007fc5d2460186f7233c927e7db2dcc703c0e500b653ca82273b7bfad8045d85a47060001b9050833f9150808214158015611c3f57506000801b8214155b92505050919050565b6040518060800160405280600081526020016000815260200160008152602001600081525090565b600081359050611c7f8161288f565b92915050565b600081519050611c94816128a6565b92915050565b600081359050611ca9816128bd565b92915050565b600081519050611cbe816128bd565b92915050565b600060208284031215611cd657600080fd5b6000611ce484828501611c70565b91505092915050565b600060208284031215611cff57600080fd5b6000611d0d84828501611c85565b91505092915050565b600060208284031215611d2857600080fd5b6000611d3684828501611c9a565b91505092915050565b600060208284031215611d5157600080fd5b6000611d5f84828501611caf565b91505092915050565b60008060408385031215611d7b57600080fd5b6000611d8985828601611c9a565b9250506020611d9a85828601611c9a565b9150509250929050565b6000611db083836123ac565b60808301905092915050565b611dc581612815565b82525050565b611dd4816127cd565b82525050565b6000611de582612772565b611def81856127a0565b9350611dfa83612762565b8060005b83811015611e2b578151611e128882611da4565b9750611e1d83612793565b925050600181019050611dfe565b5085935050505092915050565b6000611e438261277d565b611e4d81856127b1565b9350611e5d81856020860161284b565b80840191505092915050565b6000611e7482612788565b611e7e81856127bc565b9350611e8e81856020860161284b565b611e978161287e565b840191505092915050565b6000611eaf6030836127bc565b91507f656e6420736e617073686f74206964206d75737420626520686967686572207460008301527f68616e20656e64536e6170686f744944000000000000000000000000000000006020830152604082019050919050565b6000611f156026836127bc565b91507f4f776e61626c653a206e6577206f776e657220697320746865207a65726f206160008301527f64647265737300000000000000000000000000000000000000000000000000006020830152604082019050919050565b6000611f7b601e836127bc565b91507f536e617073686f74206d75737420626520686967686572207468616e203100006000830152602082019050919050565b6000611fbb601e836127bc565b91507f536e617073686f74206d75737420626520686967686572207468616e203200006000830152602082019050919050565b6000611ffb601b836127bc565b91507f536166654d6174683a206164646974696f6e206f766572666c6f7700000000006000830152602082019050919050565b600061203b600f836127bc565b91507f616c726561647920636c61696d656400000000000000000000000000000000006000830152602082019050919050565b600061207b6012836127bc565b91507f616c7265616479207769746864726177656400000000000000000000000000006000830152602082019050919050565b60006120bb6031836127bc565b91507f656e6420736e617073686f74206964206d75737420626520686967686572207460008301527f68616e20656e64536e617073686f7449440000000000000000000000000000006020830152604082019050919050565b60006121216037836127bc565b91507f796f7572206e65742062616c616e6365206e6565647320746f20626520706f7360008301527f6974697665206265747765656e20736e617073686f74730000000000000000006020830152604082019050919050565b60006121876021836127bc565b91507f536166654d6174683a206d756c7469706c69636174696f6e206f766572666c6f60008301527f77000000000000000000000000000000000000000000000000000000000000006020830152604082019050919050565b60006121ed6020836127bc565b91507f4f776e61626c653a2063616c6c6572206973206e6f7420746865206f776e65726000830152602082019050919050565b600061222d6017836127bc565b91507f416d6f756e7420486967686572207468616e207a65726f0000000000000000006000830152602082019050919050565b600061226d601d836127bc565b91507f416464726573733a2063616c6c20746f206e6f6e2d636f6e74726163740000006000830152602082019050919050565b60006122ad602a836127bc565b91507f5361666545524332303a204552433230206f7065726174696f6e20646964206e60008301527f6f742073756363656564000000000000000000000000000000000000000000006020830152604082019050919050565b60006123136024836127bc565b91507f63616e206e6f742077697468647261772061742063757272656e7420736e617060008301527f686f7374000000000000000000000000000000000000000000000000000000006020830152604082019050919050565b6000612379601f836127bc565b91507f686967686572207468616e2063757272656e7420736e617073686f74206964006000830152602082019050919050565b6080820160008201516123c26000850182612401565b5060208201516123d56020850182612401565b5060408201516123e86040850182612401565b5060608201516123fb6060850182612401565b50505050565b61240a8161280b565b82525050565b6124198161280b565b82525050565b600061242b8284611e38565b915081905092915050565b600060208201905061244b6000830184611dcb565b92915050565b60006040820190506124666000830185611dbc565b6124736020830184612410565b9392505050565b600060608201905061248f6000830186611dcb565b61249c6020830185611dcb565b6124a96040830184612410565b949350505050565b60006040820190506124c66000830185611dcb565b6124d36020830184612410565b9392505050565b600060208201905081810360008301526124f48184611dda565b905092915050565b600060208201905081810360008301526125168184611e69565b905092915050565b6000602082019050818103600083015261253781611ea2565b9050919050565b6000602082019050818103600083015261255781611f08565b9050919050565b6000602082019050818103600083015261257781611f6e565b9050919050565b6000602082019050818103600083015261259781611fae565b9050919050565b600060208201905081810360008301526125b781611fee565b9050919050565b600060208201905081810360008301526125d78161202e565b9050919050565b600060208201905081810360008301526125f78161206e565b9050919050565b60006020820190508181036000830152612617816120ae565b9050919050565b6000602082019050818103600083015261263781612114565b9050919050565b600060208201905081810360008301526126578161217a565b9050919050565b60006020820190508181036000830152612677816121e0565b9050919050565b6000602082019050818103600083015261269781612220565b9050919050565b600060208201905081810360008301526126b781612260565b9050919050565b600060208201905081810360008301526126d7816122a0565b9050919050565b600060208201905081810360008301526126f781612306565b9050919050565b600060208201905081810360008301526127178161236c565b9050919050565b60006020820190506127336000830184612410565b92915050565b600060408201905061274e6000830185612410565b61275b6020830184612410565b9392505050565b6000819050602082019050919050565b600081519050919050565b600081519050919050565b600081519050919050565b6000602082019050919050565b600082825260208201905092915050565b600081905092915050565b600082825260208201905092915050565b60006127d8826127eb565b9050919050565b60008115159050919050565b600073ffffffffffffffffffffffffffffffffffffffff82169050919050565b6000819050919050565b600061282082612827565b9050919050565b600061283282612839565b9050919050565b6000612844826127eb565b9050919050565b60005b8381101561286957808201518184015260208101905061284e565b83811115612878576000848401525b50505050565b6000601f19601f8301169050919050565b612898816127cd565b81146128a357600080fd5b50565b6128af816127df565b81146128ba57600080fd5b50565b6128c68161280b565b81146128d157600080fd5b5056fea2646970667358221220943b91466dd16a1ac5dd3aff51ba7c577786367148b3354953591d0b9690968f64736f6c634300060c0033",
  "compiler": {
    "name": "solc",
    "version": "0.6.12+commit.27d51765.Emscripten.clang",
    "optimizer": {
      "enabled": false,
      "runs": 200
    },
    "evmVersion": "petersburg"
  }
}